{
  "_format": "hh-sol-artifact-1",
  "contractName": "CreditScore",
  "sourceName": "contracts/CreditScore.sol",
  "abi": [
    {
      "inputs": [],
      "stateMutability": "nonpayable",
      "type": "constructor"
    },
    {
      "anonymous": false,
      "inputs": [
        {
          "indexed": true,
          "internalType": "address",
          "name": "user",
          "type": "address"
        },
        {
          "indexed": false,
          "internalType": "uint256",
          "name": "score",
          "type": "uint256"
        }
      ],
      "name": "CreditScoreAssigned",
      "type": "event"
    },
    {
      "anonymous": false,
      "inputs": [
        {
          "indexed": true,
          "internalType": "address",
          "name": "user",
          "type": "address"
        },
        {
          "indexed": false,
          "internalType": "uint256",
          "name": "newScore",
          "type": "uint256"
        }
      ],
      "name": "CreditScoreUpdated",
      "type": "event"
    },
    {
      "inputs": [
        {
          "internalType": "address",
          "name": "_user",
          "type": "address"
        },
        {
          "internalType": "uint256",
          "name": "_score",
          "type": "uint256"
        }
      ],
      "name": "assignCreditScore",
      "outputs": [],
      "stateMutability": "nonpayable",
      "type": "function"
    },
    {
      "inputs": [
        {
          "internalType": "address",
          "name": "_user",
          "type": "address"
        }
      ],
      "name": "getCreditScore",
      "outputs": [
        {
          "internalType": "uint256",
          "name": "",
          "type": "uint256"
        }
      ],
      "stateMutability": "view",
      "type": "function"
    },
    {
      "inputs": [],
      "name": "owner",
      "outputs": [
        {
          "internalType": "address",
          "name": "",
          "type": "address"
        }
      ],
      "stateMutability": "view",
      "type": "function"
    },
    {
      "inputs": [
        {
          "internalType": "address",
          "name": "_user",
          "type": "address"
        },
        {
          "internalType": "uint256",
          "name": "_newScore",
          "type": "uint256"
        }
      ],
      "name": "updateCreditScore",
      "outputs": [],
      "stateMutability": "nonpayable",
      "type": "function"
    }
  ],
  "bytecode": "0x6080604052348015600f57600080fd5b5033600160006101000a81548173ffffffffffffffffffffffffffffffffffffffff021916908373ffffffffffffffffffffffffffffffffffffffff16021790555061088b806100606000396000f3fe608060405234801561001057600080fd5b506004361061004c5760003560e01c806365352f9d146100515780638da5cb5b1461006d578063d3dd2bdf1461008b578063d533f1a1146100bb575b600080fd5b61006b60048036038101906100669190610619565b6100d7565b005b61007561028d565b6040516100829190610668565b60405180910390f35b6100a560048036038101906100a09190610683565b6102b3565b6040516100b291906106bf565b60405180910390f35b6100d560048036038101906100d09190610619565b61038c565b005b600160009054906101000a900473ffffffffffffffffffffffffffffffffffffffff1673ffffffffffffffffffffffffffffffffffffffff163373ffffffffffffffffffffffffffffffffffffffff1614610167576040517f08c379a000000000000000000000000000000000000000000000000000000000815260040161015e90610737565b60405180910390fd5b6000808373ffffffffffffffffffffffffffffffffffffffff1673ffffffffffffffffffffffffffffffffffffffff16815260200190815260200160002060010160009054906101000a900460ff166101f5576040517f08c379a00000000000000000000000000000000000000000000000000000000081526004016101ec906107c9565b60405180910390fd5b806000808473ffffffffffffffffffffffffffffffffffffffff1673ffffffffffffffffffffffffffffffffffffffff168152602001908152602001600020600001819055508173ffffffffffffffffffffffffffffffffffffffff167f79c012a0cfae660e09134956bc432c8497ec80e86a3a108d130e8b3fca52b3ad8260405161028191906106bf565b60405180910390a25050565b600160009054906101000a900473ffffffffffffffffffffffffffffffffffffffff1681565b60008060008373ffffffffffffffffffffffffffffffffffffffff1673ffffffffffffffffffffffffffffffffffffffff16815260200190815260200160002060010160009054906101000a900460ff16610343576040517f08c379a000000000000000000000000000000000000000000000000000000000815260040161033a906107c9565b60405180910390fd5b6000808373ffffffffffffffffffffffffffffffffffffffff1673ffffffffffffffffffffffffffffffffffffffff168152602001908152602001600020600001549050919050565b600160009054906101000a900473ffffffffffffffffffffffffffffffffffffffff1673ffffffffffffffffffffffffffffffffffffffff163373ffffffffffffffffffffffffffffffffffffffff161461041c576040517f08c379a000000000000000000000000000000000000000000000000000000000815260040161041390610737565b60405180910390fd5b6000808373ffffffffffffffffffffffffffffffffffffffff1673ffffffffffffffffffffffffffffffffffffffff16815260200190815260200160002060010160009054906101000a900460ff16156104ab576040517f08c379a00000000000000000000000000000000000000000000000000000000081526004016104a290610835565b60405180910390fd5b6040518060400160405280828152602001600115158152506000808473ffffffffffffffffffffffffffffffffffffffff1673ffffffffffffffffffffffffffffffffffffffff1681526020019081526020016000206000820151816000015560208201518160010160006101000a81548160ff0219169083151502179055509050508173ffffffffffffffffffffffffffffffffffffffff167f4afae6838a181695abc7978598380d73bc2144eb38580c130f86e4b1e6531e158260405161057491906106bf565b60405180910390a25050565b600080fd5b600073ffffffffffffffffffffffffffffffffffffffff82169050919050565b60006105b082610585565b9050919050565b6105c0816105a5565b81146105cb57600080fd5b50565b6000813590506105dd816105b7565b92915050565b6000819050919050565b6105f6816105e3565b811461060157600080fd5b50565b600081359050610613816105ed565b92915050565b600080604083850312156106305761062f610580565b5b600061063e858286016105ce565b925050602061064f85828601610604565b9150509250929050565b610662816105a5565b82525050565b600060208201905061067d6000830184610659565b92915050565b60006020828403121561069957610698610580565b5b60006106a7848285016105ce565b91505092915050565b6106b9816105e3565b82525050565b60006020820190506106d460008301846106b0565b92915050565b600082825260208201905092915050565b7f4e6f7420617574686f72697a6564000000000000000000000000000000000000600082015250565b6000610721600e836106da565b915061072c826106eb565b602082019050919050565b6000602082019050818103600083015261075081610714565b9050919050565b7f5573657220646f6573206e6f7420686176652061206372656469742073636f7260008201527f6500000000000000000000000000000000000000000000000000000000000000602082015250565b60006107b36021836106da565b91506107be82610757565b604082019050919050565b600060208201905081810360008301526107e2816107a6565b9050919050565b7f5573657220616c7265616479206861732061206372656469742073636f726500600082015250565b600061081f601f836106da565b915061082a826107e9565b602082019050919050565b6000602082019050818103600083015261084e81610812565b905091905056fea264697066735822122041041dd5d42895915f85a4a29f289a0a436e81cf56056c7d34840c6104d1719864736f6c634300081c0033",
  "linkReferences": {},
  "deployedLinkReferences": {}
}