{
  "_format": "hh-sol-artifact-1",
  "contractName": "DAOContract",
  "sourceName": "contracts/DAOContract.sol",
  "abi": [
    {
      "inputs": [
        {
          "internalType": "address",
          "name": "_loanContract",
          "type": "address"
        }
      ],
      "stateMutability": "nonpayable",
      "type": "constructor"
    },
    {
      "anonymous": false,
      "inputs": [
        {
          "indexed": false,
          "internalType": "uint256",
          "name": "requestId",
          "type": "uint256"
        }
      ],
      "name": "LoanApproved",
      "type": "event"
    },
    {
      "anonymous": false,
      "inputs": [
        {
          "indexed": false,
          "internalType": "uint256",
          "name": "requestId",
          "type": "uint256"
        },
        {
          "indexed": true,
          "internalType": "address",
          "name": "borrower",
          "type": "address"
        },
        {
          "indexed": false,
          "internalType": "uint256",
          "name": "amount",
          "type": "uint256"
        }
      ],
      "name": "LoanRequested",
      "type": "event"
    },
    {
      "inputs": [
        {
          "internalType": "address",
          "name": "_member",
          "type": "address"
        }
      ],
      "name": "addMember",
      "outputs": [],
      "stateMutability": "nonpayable",
      "type": "function"
    },
    {
      "inputs": [
        {
          "internalType": "uint256",
          "name": "_requestId",
          "type": "uint256"
        }
      ],
      "name": "getLoanStatus",
      "outputs": [
        {
          "internalType": "bool",
          "name": "",
          "type": "bool"
        }
      ],
      "stateMutability": "view",
      "type": "function"
    },
    {
      "inputs": [],
      "name": "loanContract",
      "outputs": [
        {
          "internalType": "address",
          "name": "",
          "type": "address"
        }
      ],
      "stateMutability": "view",
      "type": "function"
    },
    {
      "inputs": [
        {
          "internalType": "uint256",
          "name": "",
          "type": "uint256"
        }
      ],
      "name": "loanRequests",
      "outputs": [
        {
          "internalType": "address",
          "name": "borrower",
          "type": "address"
        },
        {
          "internalType": "uint256",
          "name": "amount",
          "type": "uint256"
        },
        {
          "internalType": "bool",
          "name": "approved",
          "type": "bool"
        },
        {
          "internalType": "uint256",
          "name": "votes",
          "type": "uint256"
        }
      ],
      "stateMutability": "view",
      "type": "function"
    },
    {
      "inputs": [
        {
          "internalType": "address",
          "name": "",
          "type": "address"
        }
      ],
      "name": "members",
      "outputs": [
        {
          "internalType": "bool",
          "name": "",
          "type": "bool"
        }
      ],
      "stateMutability": "view",
      "type": "function"
    },
    {
      "inputs": [],
      "name": "owner",
      "outputs": [
        {
          "internalType": "address",
          "name": "",
          "type": "address"
        }
      ],
      "stateMutability": "view",
      "type": "function"
    },
    {
      "inputs": [],
      "name": "requestCount",
      "outputs": [
        {
          "internalType": "uint256",
          "name": "",
          "type": "uint256"
        }
      ],
      "stateMutability": "view",
      "type": "function"
    },
    {
      "inputs": [
        {
          "internalType": "uint256",
          "name": "_amount",
          "type": "uint256"
        }
      ],
      "name": "requestLoan",
      "outputs": [],
      "stateMutability": "nonpayable",
      "type": "function"
    },
    {
      "inputs": [
        {
          "internalType": "uint256",
          "name": "_requestId",
          "type": "uint256"
        }
      ],
      "name": "voteForLoan",
      "outputs": [],
      "stateMutability": "nonpayable",
      "type": "function"
    }
  ],
  "bytecode": "0x608060405234801561001057600080fd5b50604051610c37380380610c3783398181016040528101906100329190610174565b336000806101000a81548173ffffffffffffffffffffffffffffffffffffffff021916908373ffffffffffffffffffffffffffffffffffffffff1602179055506001600260003373ffffffffffffffffffffffffffffffffffffffff1673ffffffffffffffffffffffffffffffffffffffff16815260200190815260200160002060006101000a81548160ff02191690831515021790555080600160006101000a81548173ffffffffffffffffffffffffffffffffffffffff021916908373ffffffffffffffffffffffffffffffffffffffff160217905550506101a1565b600080fd5b600073ffffffffffffffffffffffffffffffffffffffff82169050919050565b600061014182610116565b9050919050565b61015181610136565b811461015c57600080fd5b50565b60008151905061016e81610148565b92915050565b60006020828403121561018a57610189610111565b5b60006101988482850161015f565b91505092915050565b610a87806101b06000396000f3fe608060405234801561001057600080fd5b50600436106100935760003560e01c80635badbe4c116100665780635badbe4c146101325780638d5d3429146101505780638da5cb5b1461016c578063ca6d56dc1461018a578063d1b332f4146101a657610093565b806308ae4b0c146100985780631c4fd41c146100c8578063253f284b146100f85780632d6f959914610116575b600080fd5b6100b260048036038101906100ad91906106fd565b6101d9565b6040516100bf9190610745565b60405180910390f35b6100e260048036038101906100dd9190610796565b6101f9565b6040516100ef9190610745565b60405180910390f35b610100610226565b60405161010d91906107d2565b60405180910390f35b610130600480360381019061012b9190610796565b61024c565b005b61013a6103ef565b60405161014791906107fc565b60405180910390f35b61016a60048036038101906101659190610796565b6103f5565b005b610174610530565b60405161018191906107d2565b60405180910390f35b6101a4600480360381019061019f91906106fd565b610554565b005b6101c060048036038101906101bb9190610796565b61063d565b6040516101d09493929190610817565b60405180910390f35b60026020528060005260406000206000915054906101000a900460ff1681565b60006003600083815260200190815260200160002060020160009054906101000a900460ff169050919050565b600160009054906101000a900473ffffffffffffffffffffffffffffffffffffffff1681565b600260003373ffffffffffffffffffffffffffffffffffffffff1673ffffffffffffffffffffffffffffffffffffffff16815260200190815260200160002060009054906101000a900460ff166102d8576040517f08c379a00000000000000000000000000000000000000000000000000000000081526004016102cf906108b9565b60405180910390fd5b6003600082815260200190815260200160002060020160009054906101000a900460ff161561033c576040517f08c379a000000000000000000000000000000000000000000000000000000000815260040161033390610925565b60405180910390fd5b60036000828152602001908152602001600020600301600081548092919061036390610974565b9190505550600380600083815260200190815260200160002060030154106103ec5760016003600083815260200190815260200160002060020160006101000a81548160ff0219169083151502179055507f073e754af3e7d644af8000094f3c23bc20ef9c40cc057bffa060b0230adf00f4816040516103e391906107fc565b60405180910390a15b50565b60045481565b6004600081548092919061040890610974565b919050555060405180608001604052803373ffffffffffffffffffffffffffffffffffffffff168152602001828152602001600015158152602001600081525060036000600454815260200190815260200160002060008201518160000160006101000a81548173ffffffffffffffffffffffffffffffffffffffff021916908373ffffffffffffffffffffffffffffffffffffffff1602179055506020820151816001015560408201518160020160006101000a81548160ff021916908315150217905550606082015181600301559050503373ffffffffffffffffffffffffffffffffffffffff167f97e04be2fd6414727fe9d0400464568f4384aa8b06264119565ca8f6cc2a4b7a600454836040516105259291906109bc565b60405180910390a250565b60008054906101000a900473ffffffffffffffffffffffffffffffffffffffff1681565b60008054906101000a900473ffffffffffffffffffffffffffffffffffffffff1673ffffffffffffffffffffffffffffffffffffffff163373ffffffffffffffffffffffffffffffffffffffff16146105e2576040517f08c379a00000000000000000000000000000000000000000000000000000000081526004016105d990610a31565b60405180910390fd5b6001600260008373ffffffffffffffffffffffffffffffffffffffff1673ffffffffffffffffffffffffffffffffffffffff16815260200190815260200160002060006101000a81548160ff02191690831515021790555050565b60036020528060005260406000206000915090508060000160009054906101000a900473ffffffffffffffffffffffffffffffffffffffff16908060010154908060020160009054906101000a900460ff16908060030154905084565b600080fd5b600073ffffffffffffffffffffffffffffffffffffffff82169050919050565b60006106ca8261069f565b9050919050565b6106da816106bf565b81146106e557600080fd5b50565b6000813590506106f7816106d1565b92915050565b6000602082840312156107135761071261069a565b5b6000610721848285016106e8565b91505092915050565b60008115159050919050565b61073f8161072a565b82525050565b600060208201905061075a6000830184610736565b92915050565b6000819050919050565b61077381610760565b811461077e57600080fd5b50565b6000813590506107908161076a565b92915050565b6000602082840312156107ac576107ab61069a565b5b60006107ba84828501610781565b91505092915050565b6107cc816106bf565b82525050565b60006020820190506107e760008301846107c3565b92915050565b6107f681610760565b82525050565b600060208201905061081160008301846107ed565b92915050565b600060808201905061082c60008301876107c3565b61083960208301866107ed565b6108466040830185610736565b61085360608301846107ed565b95945050505050565b600082825260208201905092915050565b7f4e6f7420612044414f206d656d62657200000000000000000000000000000000600082015250565b60006108a360108361085c565b91506108ae8261086d565b602082019050919050565b600060208201905081810360008301526108d281610896565b9050919050565b7f416c726561647920617070726f76656400000000000000000000000000000000600082015250565b600061090f60108361085c565b915061091a826108d9565b602082019050919050565b6000602082019050818103600083015261093e81610902565b9050919050565b7f4e487b7100000000000000000000000000000000000000000000000000000000600052601160045260246000fd5b600061097f82610760565b91507fffffffffffffffffffffffffffffffffffffffffffffffffffffffffffffffff82036109b1576109b0610945565b5b600182019050919050565b60006040820190506109d160008301856107ed565b6109de60208301846107ed565b9392505050565b7f4e6f7420617574686f72697a6564000000000000000000000000000000000000600082015250565b6000610a1b600e8361085c565b9150610a26826109e5565b602082019050919050565b60006020820190508181036000830152610a4a81610a0e565b905091905056fea26469706673582212200385c7b360063a272800e4dbe9fbc62e6f384018973e94ac68a83fd8de81369a64736f6c634300081c0033",
  "linkReferences": {},
  "deployedLinkReferences": {}
}