{
  "_format": "hh-sol-artifact-1",
  "contractName": "DAOContract",
  "sourceName": "contracts/DAOContract.sol",
  "abi": [
    {
      "inputs": [
        {
          "internalType": "address",
          "name": "_loanContract",
          "type": "address"
        }
      ],
      "stateMutability": "nonpayable",
      "type": "constructor"
    },
    {
      "anonymous": false,
      "inputs": [
        {
          "indexed": true,
          "internalType": "uint256",
          "name": "loanId",
          "type": "uint256"
        }
      ],
      "name": "LoanApproved",
      "type": "event"
    },
    {
      "anonymous": false,
      "inputs": [
        {
          "indexed": true,
          "internalType": "uint256",
          "name": "loanId",
          "type": "uint256"
        }
      ],
      "name": "LoanRejected",
      "type": "event"
    },
    {
      "anonymous": false,
      "inputs": [
        {
          "indexed": true,
          "internalType": "address",
          "name": "member",
          "type": "address"
        }
      ],
      "name": "MemberAdded",
      "type": "event"
    },
    {
      "anonymous": false,
      "inputs": [
        {
          "indexed": true,
          "internalType": "uint256",
          "name": "loanId",
          "type": "uint256"
        },
        {
          "indexed": true,
          "internalType": "address",
          "name": "member",
          "type": "address"
        },
        {
          "indexed": false,
          "internalType": "bool",
          "name": "vote",
          "type": "bool"
        }
      ],
      "name": "VoteCast",
      "type": "event"
    },
    {
      "inputs": [
        {
          "internalType": "address",
          "name": "_member",
          "type": "address"
        }
      ],
      "name": "addMember",
      "outputs": [],
      "stateMutability": "nonpayable",
      "type": "function"
    },
    {
      "inputs": [
        {
          "internalType": "address",
          "name": "borrower",
          "type": "address"
        }
      ],
      "name": "getBorrowerCreditScore",
      "outputs": [
        {
          "internalType": "uint256",
          "name": "",
          "type": "uint256"
        },
        {
          "internalType": "bool",
          "name": "",
          "type": "bool"
        }
      ],
      "stateMutability": "view",
      "type": "function"
    },
    {
      "inputs": [
        {
          "internalType": "uint256",
          "name": "loanId",
          "type": "uint256"
        }
      ],
      "name": "getLoanDetails",
      "outputs": [
        {
          "internalType": "address",
          "name": "borrower",
          "type": "address"
        },
        {
          "internalType": "uint256",
          "name": "amount",
          "type": "uint256"
        },
        {
          "internalType": "uint256",
          "name": "repaymentDue",
          "type": "uint256"
        },
        {
          "internalType": "bool",
          "name": "isApproved",
          "type": "bool"
        },
        {
          "internalType": "bool",
          "name": "isPaid",
          "type": "bool"
        },
        {
          "internalType": "uint256",
          "name": "voteCount",
          "type": "uint256"
        }
      ],
      "stateMutability": "view",
      "type": "function"
    },
    {
      "inputs": [],
      "name": "getPendingLoans",
      "outputs": [
        {
          "internalType": "uint256[]",
          "name": "",
          "type": "uint256[]"
        }
      ],
      "stateMutability": "view",
      "type": "function"
    },
    {
      "inputs": [
        {
          "internalType": "uint256",
          "name": "loanId",
          "type": "uint256"
        },
        {
          "internalType": "address",
          "name": "user",
          "type": "address"
        }
      ],
      "name": "hasUserVoted",
      "outputs": [
        {
          "internalType": "bool",
          "name": "",
          "type": "bool"
        }
      ],
      "stateMutability": "view",
      "type": "function"
    },
    {
      "inputs": [
        {
          "internalType": "uint256",
          "name": "",
          "type": "uint256"
        },
        {
          "internalType": "address",
          "name": "",
          "type": "address"
        }
      ],
      "name": "hasVoted",
      "outputs": [
        {
          "internalType": "bool",
          "name": "",
          "type": "bool"
        }
      ],
      "stateMutability": "view",
      "type": "function"
    },
    {
      "inputs": [],
      "name": "loanContract",
      "outputs": [
        {
          "internalType": "address",
          "name": "",
          "type": "address"
        }
      ],
      "stateMutability": "view",
      "type": "function"
    },
    {
      "inputs": [
        {
          "internalType": "uint256",
          "name": "",
          "type": "uint256"
        }
      ],
      "name": "loanVotes",
      "outputs": [
        {
          "internalType": "uint256",
          "name": "",
          "type": "uint256"
        }
      ],
      "stateMutability": "view",
      "type": "function"
    },
    {
      "inputs": [
        {
          "internalType": "address",
          "name": "",
          "type": "address"
        }
      ],
      "name": "members",
      "outputs": [
        {
          "internalType": "bool",
          "name": "",
          "type": "bool"
        }
      ],
      "stateMutability": "view",
      "type": "function"
    },
    {
      "inputs": [],
      "name": "owner",
      "outputs": [
        {
          "internalType": "address",
          "name": "",
          "type": "address"
        }
      ],
      "stateMutability": "view",
      "type": "function"
    },
    {
      "inputs": [
        {
          "internalType": "uint256",
          "name": "loanId",
          "type": "uint256"
        }
      ],
      "name": "rejectLoan",
      "outputs": [],
      "stateMutability": "nonpayable",
      "type": "function"
    },
    {
      "inputs": [],
      "name": "requiredVotes",
      "outputs": [
        {
          "internalType": "uint256",
          "name": "",
          "type": "uint256"
        }
      ],
      "stateMutability": "view",
      "type": "function"
    },
    {
      "inputs": [
        {
          "internalType": "uint256",
          "name": "_requiredVotes",
          "type": "uint256"
        }
      ],
      "name": "setRequiredVotes",
      "outputs": [],
      "stateMutability": "nonpayable",
      "type": "function"
    },
    {
      "inputs": [
        {
          "internalType": "uint256",
          "name": "loanId",
          "type": "uint256"
        },
        {
          "internalType": "bool",
          "name": "vote",
          "type": "bool"
        }
      ],
      "name": "voteOnLoan",
      "outputs": [],
      "stateMutability": "nonpayable",
      "type": "function"
    }
  ],
  "bytecode": "0x6080604052600360055534801561001557600080fd5b5060405161175b38038061175b83398181016040528101906100379190610179565b336000806101000a81548173ffffffffffffffffffffffffffffffffffffffff021916908373ffffffffffffffffffffffffffffffffffffffff1602179055506001600260003373ffffffffffffffffffffffffffffffffffffffff1673ffffffffffffffffffffffffffffffffffffffff16815260200190815260200160002060006101000a81548160ff02191690831515021790555080600160006101000a81548173ffffffffffffffffffffffffffffffffffffffff021916908373ffffffffffffffffffffffffffffffffffffffff160217905550506101a6565b600080fd5b600073ffffffffffffffffffffffffffffffffffffffff82169050919050565b60006101468261011b565b9050919050565b6101568161013b565b811461016157600080fd5b50565b6000815190506101738161014d565b92915050565b60006020828403121561018f5761018e610116565b5b600061019d84828501610164565b91505092915050565b6115a6806101b56000396000f3fe608060405234801561001057600080fd5b50600436106100ea5760003560e01c80638da5cb5b1161008c578063c4d9dcaf11610066578063c4d9dcaf14610277578063ca6d56dc14610293578063dc296ae1146102af578063ee24af5a146102df576100ea565b80638da5cb5b1461020a5780639426b33814610228578063bd31a4d814610259576100ea565b806343859632116100c857806343859632146101595780635d29cb981461018957806366877b8d146101a557806367da602d146101da576100ea565b806308ae4b0c146100ef578063253f284b1461011f57806331488c7f1461013d575b600080fd5b61010960048036038101906101049190610dc6565b6102fd565b6040516101169190610e0e565b60405180910390f35b61012761031d565b6040516101349190610e38565b60405180910390f35b61015760048036038101906101529190610eb5565b610343565b005b610173600480360381019061016e9190610ef5565b6106c0565b6040516101809190610e0e565b60405180910390f35b6101a3600480360381019061019e9190610f35565b6106ef565b005b6101bf60048036038101906101ba9190610f35565b610838565b6040516101d196959493929190610f71565b60405180910390f35b6101f460048036038101906101ef9190610f35565b610916565b6040516102019190610fd2565b60405180910390f35b61021261092e565b60405161021f9190610e38565b60405180910390f35b610242600480360381019061023d9190610dc6565b610952565b604051610250929190610fed565b60405180910390f35b610261610a85565b60405161026e9190610fd2565b60405180910390f35b610291600480360381019061028c9190610f35565b610a8b565b005b6102ad60048036038101906102a89190610dc6565b610b23565b005b6102c960048036038101906102c49190610ef5565b610c4f565b6040516102d69190610e0e565b60405180910390f35b6102e7610cb7565b6040516102f491906110d4565b60405180910390f35b60026020528060005260406000206000915054906101000a900460ff1681565b600160009054906101000a900473ffffffffffffffffffffffffffffffffffffffff1681565b600260003373ffffffffffffffffffffffffffffffffffffffff1673ffffffffffffffffffffffffffffffffffffffff16815260200190815260200160002060009054906101000a900460ff166103cf576040517f08c379a00000000000000000000000000000000000000000000000000000000081526004016103c690611153565b60405180910390fd5b6003600083815260200190815260200160002060003373ffffffffffffffffffffffffffffffffffffffff1673ffffffffffffffffffffffffffffffffffffffff16815260200190815260200160002060009054906101000a900460ff161561046d576040517f08c379a0000000000000000000000000000000000000000000000000000000008152600401610464906111bf565b60405180910390fd5b60016003600084815260200190815260200160002060003373ffffffffffffffffffffffffffffffffffffffff1673ffffffffffffffffffffffffffffffffffffffff16815260200190815260200160002060006101000a81548160ff0219169083151502179055508015610506576004600083815260200190815260200160002060008154809291906105009061120e565b91905055505b3373ffffffffffffffffffffffffffffffffffffffff16827fe71fcdac32df1877c1700e7bda2a03157e20993363a28fc35ac495cefc76e4d48360405161054d9190610e0e565b60405180910390a36005546004600084815260200190815260200160002054106106bc57600160009054906101000a900473ffffffffffffffffffffffffffffffffffffffff1673ffffffffffffffffffffffffffffffffffffffff166331488c7f8360016040518363ffffffff1660e01b81526004016105cf929190610fed565b600060405180830381600087803b1580156105e957600080fd5b505af11580156105fd573d6000803e3d6000fd5b50505050600160009054906101000a900473ffffffffffffffffffffffffffffffffffffffff1673ffffffffffffffffffffffffffffffffffffffff16639c407630836040518263ffffffff1660e01b815260040161065c9190610fd2565b600060405180830381600087803b15801561067657600080fd5b505af115801561068a573d6000803e3d6000fd5b50505050817f073e754af3e7d644af8000094f3c23bc20ef9c40cc057bffa060b0230adf00f460405160405180910390a25b5050565b60036020528160005260406000206020528060005260406000206000915091509054906101000a900460ff1681565b600260003373ffffffffffffffffffffffffffffffffffffffff1673ffffffffffffffffffffffffffffffffffffffff16815260200190815260200160002060009054906101000a900460ff1661077b576040517f08c379a000000000000000000000000000000000000000000000000000000000815260040161077290611153565b60405180910390fd5b600160009054906101000a900473ffffffffffffffffffffffffffffffffffffffff1673ffffffffffffffffffffffffffffffffffffffff16639c407630826040518263ffffffff1660e01b81526004016107d69190610fd2565b600060405180830381600087803b1580156107f057600080fd5b505af1158015610804573d6000803e3d6000fd5b50505050807f86466d37eece1364ab0023202e5a1d9d14dd6bb5c9904bf0bf361b062329b78e60405160405180910390a250565b600080600080600080600160009054906101000a900473ffffffffffffffffffffffffffffffffffffffff1673ffffffffffffffffffffffffffffffffffffffff1663e1ec3c68886040518263ffffffff1660e01b815260040161089c9190610fd2565b60c060405180830381865afa1580156108b9573d6000803e3d6000fd5b505050506040513d601f19601f820116820180604052508101906108dd9190611295565b909192939450809650819750829850839950849a5050505050506004600088815260200190815260200160002054905091939550919395565b60046020528060005260406000206000915090505481565b60008054906101000a900473ffffffffffffffffffffffffffffffffffffffff1681565b600080600260003373ffffffffffffffffffffffffffffffffffffffff1673ffffffffffffffffffffffffffffffffffffffff16815260200190815260200160002060009054906101000a900460ff166109e1576040517f08c379a00000000000000000000000000000000000000000000000000000000081526004016109d890611153565b60405180910390fd5b600160009054906101000a900473ffffffffffffffffffffffffffffffffffffffff1673ffffffffffffffffffffffffffffffffffffffff1663326b7b55846040518263ffffffff1660e01b8152600401610a3c9190610e38565b6040805180830381865afa158015610a58573d6000803e3d6000fd5b505050506040513d601f19601f82011682018060405250810190610a7c9190611322565b91509150915091565b60055481565b60008054906101000a900473ffffffffffffffffffffffffffffffffffffffff1673ffffffffffffffffffffffffffffffffffffffff163373ffffffffffffffffffffffffffffffffffffffff1614610b19576040517f08c379a0000000000000000000000000000000000000000000000000000000008152600401610b10906113ae565b60405180910390fd5b8060058190555050565b60008054906101000a900473ffffffffffffffffffffffffffffffffffffffff1673ffffffffffffffffffffffffffffffffffffffff163373ffffffffffffffffffffffffffffffffffffffff1614610bb1576040517f08c379a0000000000000000000000000000000000000000000000000000000008152600401610ba8906113ae565b60405180910390fd5b6001600260008373ffffffffffffffffffffffffffffffffffffffff1673ffffffffffffffffffffffffffffffffffffffff16815260200190815260200160002060006101000a81548160ff0219169083151502179055508073ffffffffffffffffffffffffffffffffffffffff167fb251eb052afc73ffd02ffe85ad79990a8b3fed60d76dbc2fa2fdd7123dffd91460405160405180910390a250565b60006003600084815260200190815260200160002060008373ffffffffffffffffffffffffffffffffffffffff1673ffffffffffffffffffffffffffffffffffffffff16815260200190815260200160002060009054906101000a900460ff16905092915050565b6060600160009054906101000a900473ffffffffffffffffffffffffffffffffffffffff1673ffffffffffffffffffffffffffffffffffffffff1663ee24af5a6040518163ffffffff1660e01b8152600401600060405180830381865afa158015610d26573d6000803e3d6000fd5b505050506040513d6000823e3d601f19601f82011682018060405250810190610d4f9190611527565b905090565b6000604051905090565b600080fd5b600080fd5b600073ffffffffffffffffffffffffffffffffffffffff82169050919050565b6000610d9382610d68565b9050919050565b610da381610d88565b8114610dae57600080fd5b50565b600081359050610dc081610d9a565b92915050565b600060208284031215610ddc57610ddb610d5e565b5b6000610dea84828501610db1565b91505092915050565b60008115159050919050565b610e0881610df3565b82525050565b6000602082019050610e236000830184610dff565b92915050565b610e3281610d88565b82525050565b6000602082019050610e4d6000830184610e29565b92915050565b6000819050919050565b610e6681610e53565b8114610e7157600080fd5b50565b600081359050610e8381610e5d565b92915050565b610e9281610df3565b8114610e9d57600080fd5b50565b600081359050610eaf81610e89565b92915050565b60008060408385031215610ecc57610ecb610d5e565b5b6000610eda85828601610e74565b9250506020610eeb85828601610ea0565b9150509250929050565b60008060408385031215610f0c57610f0b610d5e565b5b6000610f1a85828601610e74565b9250506020610f2b85828601610db1565b9150509250929050565b600060208284031215610f4b57610f4a610d5e565b5b6000610f5984828501610e74565b91505092915050565b610f6b81610e53565b82525050565b600060c082019050610f866000830189610e29565b610f936020830188610f62565b610fa06040830187610f62565b610fad6060830186610dff565b610fba6080830185610dff565b610fc760a0830184610f62565b979650505050505050565b6000602082019050610fe76000830184610f62565b92915050565b60006040820190506110026000830185610f62565b61100f6020830184610dff565b9392505050565b600081519050919050565b600082825260208201905092915050565b6000819050602082019050919050565b61104b81610e53565b82525050565b600061105d8383611042565b60208301905092915050565b6000602082019050919050565b600061108182611016565b61108b8185611021565b935061109683611032565b8060005b838110156110c75781516110ae8882611051565b97506110b983611069565b92505060018101905061109a565b5085935050505092915050565b600060208201905081810360008301526110ee8184611076565b905092915050565b600082825260208201905092915050565b7f4e6f7420612044414f206d656d62657200000000000000000000000000000000600082015250565b600061113d6010836110f6565b915061114882611107565b602082019050919050565b6000602082019050818103600083015261116c81611130565b9050919050565b7f416c726561647920766f746564206f6e2074686973206c6f616e000000000000600082015250565b60006111a9601a836110f6565b91506111b482611173565b602082019050919050565b600060208201905081810360008301526111d88161119c565b9050919050565b7f4e487b7100000000000000000000000000000000000000000000000000000000600052601160045260246000fd5b600061121982610e53565b91507fffffffffffffffffffffffffffffffffffffffffffffffffffffffffffffffff820361124b5761124a6111df565b5b600182019050919050565b60008151905061126581610e5d565b92915050565b60008151905061127a81610d9a565b92915050565b60008151905061128f81610e89565b92915050565b60008060008060008060c087890312156112b2576112b1610d5e565b5b60006112c089828a01611256565b96505060206112d189828a0161126b565b95505060406112e289828a01611256565b94505060606112f389828a01611256565b935050608061130489828a01611280565b92505060a061131589828a01611280565b9150509295509295509295565b6000806040838503121561133957611338610d5e565b5b600061134785828601611256565b925050602061135885828601611280565b9150509250929050565b7f4e6f7420617574686f72697a6564000000000000000000000000000000000000600082015250565b6000611398600e836110f6565b91506113a382611362565b602082019050919050565b600060208201905081810360008301526113c78161138b565b9050919050565b600080fd5b6000601f19601f8301169050919050565b7f4e487b7100000000000000000000000000000000000000000000000000000000600052604160045260246000fd5b61141c826113d3565b810181811067ffffffffffffffff8211171561143b5761143a6113e4565b5b80604052505050565b600061144e610d54565b905061145a8282611413565b919050565b600067ffffffffffffffff82111561147a576114796113e4565b5b602082029050602081019050919050565b600080fd5b60006114a361149e8461145f565b611444565b905080838252602082019050602084028301858111156114c6576114c561148b565b5b835b818110156114ef57806114db8882611256565b8452602084019350506020810190506114c8565b5050509392505050565b600082601f83011261150e5761150d6113ce565b5b815161151e848260208601611490565b91505092915050565b60006020828403121561153d5761153c610d5e565b5b600082015167ffffffffffffffff81111561155b5761155a610d63565b5b611567848285016114f9565b9150509291505056fea2646970667358221220036d8cdc27a60a44baa22f5765cba5adc012bad6c1e2adafe15d371138678fc764736f6c634300081c0033",
  "linkReferences": {},
  "deployedLinkReferences": {}
}