{
  "_format": "hh-sol-artifact-1",
  "contractName": "LoanContract",
  "sourceName": "contracts/LoanContract.sol",
  "abi": [
    {
      "inputs": [],
      "stateMutability": "nonpayable",
      "type": "constructor"
    },
    {
      "anonymous": false,
      "inputs": [
        {
          "indexed": true,
          "internalType": "uint256",
          "name": "loanId",
          "type": "uint256"
        }
      ],
      "name": "LoanApproved",
      "type": "event"
    },
    {
      "anonymous": false,
      "inputs": [
        {
          "indexed": true,
          "internalType": "uint256",
          "name": "loanId",
          "type": "uint256"
        }
      ],
      "name": "LoanRepaid",
      "type": "event"
    },
    {
      "anonymous": false,
      "inputs": [
        {
          "indexed": true,
          "internalType": "uint256",
          "name": "loanId",
          "type": "uint256"
        },
        {
          "indexed": true,
          "internalType": "address",
          "name": "borrower",
          "type": "address"
        },
        {
          "indexed": false,
          "internalType": "uint256",
          "name": "amount",
          "type": "uint256"
        }
      ],
      "name": "LoanRequested",
      "type": "event"
    },
    {
      "inputs": [
        {
          "internalType": "address",
          "name": "",
          "type": "address"
        }
      ],
      "name": "creditScores",
      "outputs": [
        {
          "internalType": "uint256",
          "name": "",
          "type": "uint256"
        }
      ],
      "stateMutability": "view",
      "type": "function"
    },
    {
      "inputs": [],
      "name": "daoContract",
      "outputs": [
        {
          "internalType": "address",
          "name": "",
          "type": "address"
        }
      ],
      "stateMutability": "view",
      "type": "function"
    },
    {
      "inputs": [
        {
          "internalType": "uint256",
          "name": "loanId",
          "type": "uint256"
        }
      ],
      "name": "disburseLoan",
      "outputs": [],
      "stateMutability": "payable",
      "type": "function"
    },
    {
      "inputs": [],
      "name": "getCreditScore",
      "outputs": [
        {
          "internalType": "uint256",
          "name": "",
          "type": "uint256"
        }
      ],
      "stateMutability": "view",
      "type": "function"
    },
    {
      "inputs": [
        {
          "internalType": "address",
          "name": "user",
          "type": "address"
        }
      ],
      "name": "getCreditScoreByDAO",
      "outputs": [
        {
          "internalType": "uint256",
          "name": "",
          "type": "uint256"
        },
        {
          "internalType": "bool",
          "name": "",
          "type": "bool"
        }
      ],
      "stateMutability": "view",
      "type": "function"
    },
    {
      "inputs": [
        {
          "internalType": "uint256[]",
          "name": "loanIds",
          "type": "uint256[]"
        }
      ],
      "name": "getMultipleLoans",
      "outputs": [
        {
          "components": [
            {
              "internalType": "uint256",
              "name": "id",
              "type": "uint256"
            },
            {
              "internalType": "address",
              "name": "borrower",
              "type": "address"
            },
            {
              "internalType": "uint256",
              "name": "amount",
              "type": "uint256"
            },
            {
              "internalType": "uint256",
              "name": "repaymentDue",
              "type": "uint256"
            },
            {
              "internalType": "bool",
              "name": "isApproved",
              "type": "bool"
            },
            {
              "internalType": "bool",
              "name": "isPaid",
              "type": "bool"
            }
          ],
          "internalType": "struct LoanContract.Loan[]",
          "name": "",
          "type": "tuple[]"
        }
      ],
      "stateMutability": "view",
      "type": "function"
    },
    {
      "inputs": [],
      "name": "getPendingLoans",
      "outputs": [
        {
          "internalType": "uint256[]",
          "name": "",
          "type": "uint256[]"
        }
      ],
      "stateMutability": "view",
      "type": "function"
    },
    {
      "inputs": [
        {
          "internalType": "address",
          "name": "user",
          "type": "address"
        }
      ],
      "name": "getUserLoans",
      "outputs": [
        {
          "internalType": "uint256[]",
          "name": "",
          "type": "uint256[]"
        }
      ],
      "stateMutability": "view",
      "type": "function"
    },
    {
      "inputs": [
        {
          "internalType": "address",
          "name": "",
          "type": "address"
        }
      ],
      "name": "hasCreditScore",
      "outputs": [
        {
          "internalType": "bool",
          "name": "",
          "type": "bool"
        }
      ],
      "stateMutability": "view",
      "type": "function"
    },
    {
      "inputs": [],
      "name": "initializeCreditScore",
      "outputs": [],
      "stateMutability": "nonpayable",
      "type": "function"
    },
    {
      "inputs": [
        {
          "internalType": "uint256",
          "name": "",
          "type": "uint256"
        }
      ],
      "name": "loans",
      "outputs": [
        {
          "internalType": "uint256",
          "name": "id",
          "type": "uint256"
        },
        {
          "internalType": "address",
          "name": "borrower",
          "type": "address"
        },
        {
          "internalType": "uint256",
          "name": "amount",
          "type": "uint256"
        },
        {
          "internalType": "uint256",
          "name": "repaymentDue",
          "type": "uint256"
        },
        {
          "internalType": "bool",
          "name": "isApproved",
          "type": "bool"
        },
        {
          "internalType": "bool",
          "name": "isPaid",
          "type": "bool"
        }
      ],
      "stateMutability": "view",
      "type": "function"
    },
    {
      "inputs": [],
      "name": "owner",
      "outputs": [
        {
          "internalType": "address",
          "name": "",
          "type": "address"
        }
      ],
      "stateMutability": "view",
      "type": "function"
    },
    {
      "inputs": [
        {
          "internalType": "uint256",
          "name": "",
          "type": "uint256"
        }
      ],
      "name": "pendingLoans",
      "outputs": [
        {
          "internalType": "uint256",
          "name": "",
          "type": "uint256"
        }
      ],
      "stateMutability": "view",
      "type": "function"
    },
    {
      "inputs": [
        {
          "internalType": "uint256",
          "name": "loanId",
          "type": "uint256"
        }
      ],
      "name": "removePendingLoan",
      "outputs": [],
      "stateMutability": "nonpayable",
      "type": "function"
    },
    {
      "inputs": [
        {
          "internalType": "uint256",
          "name": "loanId",
          "type": "uint256"
        }
      ],
      "name": "repayLoan",
      "outputs": [],
      "stateMutability": "payable",
      "type": "function"
    },
    {
      "inputs": [
        {
          "internalType": "uint256",
          "name": "amount",
          "type": "uint256"
        },
        {
          "internalType": "uint256",
          "name": "duration",
          "type": "uint256"
        }
      ],
      "name": "requestLoan",
      "outputs": [],
      "stateMutability": "nonpayable",
      "type": "function"
    },
    {
      "inputs": [
        {
          "internalType": "address",
          "name": "_daoContract",
          "type": "address"
        }
      ],
      "name": "setDAOContract",
      "outputs": [],
      "stateMutability": "nonpayable",
      "type": "function"
    },
    {
      "inputs": [
        {
          "internalType": "uint256",
          "name": "loanId",
          "type": "uint256"
        },
        {
          "internalType": "bool",
          "name": "vote",
          "type": "bool"
        }
      ],
      "name": "voteOnLoan",
      "outputs": [],
      "stateMutability": "nonpayable",
      "type": "function"
    }
  ],
  "bytecode": "0x6080604052348015600f57600080fd5b5033600460006101000a81548173ffffffffffffffffffffffffffffffffffffffff021916908373ffffffffffffffffffffffffffffffffffffffff1602179055506120cb806100606000396000f3fe6080604052600436106101095760003560e01c80636c77327011610095578063aa452fa611610064578063aa452fa614610390578063ab7b1c89146103b9578063b73e4da0146103d5578063e1ec3c68146103f1578063ee24af5a1461043357610109565b80636c773270146102c257806380bb7273146102ff5780638da5cb5b1461033c5780639c4076301461036757610109565b8063326b7b55116100dc578063326b7b55146101ee57806338fcfb5f1461022c578063425d512a146102435780634a7ffcbc1461026c5780635da195381461029757610109565b806302bf321f1461010e57806314dea5a01461014b57806328db15941461018857806331488c7f146101c5575b600080fd5b34801561011a57600080fd5b50610135600480360381019061013091906115d3565b61045e565b60405161014291906116c8565b60405180910390f35b34801561015757600080fd5b50610172600480360381019061016d9190611716565b6104f5565b60405161017f9190611752565b60405180910390f35b34801561019457600080fd5b506101af60048036038101906101aa91906115d3565b610519565b6040516101bc9190611788565b60405180910390f35b3480156101d157600080fd5b506101ec60048036038101906101e791906117cf565b610539565b005b3480156101fa57600080fd5b50610215600480360381019061021091906115d3565b61062f565b60405161022392919061180f565b60405180910390f35b34801561023857600080fd5b506102416106c8565b005b34801561024f57600080fd5b5061026a600480360381019061026591906115d3565b6107f5565b005b34801561027857600080fd5b506102816108c9565b60405161028e9190611847565b60405180910390f35b3480156102a357600080fd5b506102ac6108ef565b6040516102b99190611752565b60405180910390f35b3480156102ce57600080fd5b506102e960048036038101906102e491906118c7565b6109c2565b6040516102f69190611a5c565b60405180910390f35b34801561030b57600080fd5b50610326600480360381019061032191906115d3565b610b43565b6040516103339190611752565b60405180910390f35b34801561034857600080fd5b50610351610b5b565b60405161035e9190611847565b60405180910390f35b34801561037357600080fd5b5061038e60048036038101906103899190611716565b610b81565b005b34801561039c57600080fd5b506103b760048036038101906103b29190611a7e565b610cd6565b005b6103d360048036038101906103ce9190611716565b610ef7565b005b6103ef60048036038101906103ea9190611716565b61107c565b005b3480156103fd57600080fd5b5061041860048036038101906104139190611716565b611172565b60405161042a96959493929190611abe565b60405180910390f35b34801561043f57600080fd5b506104486111e8565b60405161045591906116c8565b60405180910390f35b6060600560008373ffffffffffffffffffffffffffffffffffffffff1673ffffffffffffffffffffffffffffffffffffffff1681526020019081526020016000208054806020026020016040519081016040528092919081815260200182805480156104e957602002820191906000526020600020905b8154815260200190600101908083116104d5575b50505050509050919050565b6006818154811061050557600080fd5b906000526020600020016000915090505481565b60026020528060005260406000206000915054906101000a900460ff1681565b600360009054906101000a900473ffffffffffffffffffffffffffffffffffffffff1673ffffffffffffffffffffffffffffffffffffffff163373ffffffffffffffffffffffffffffffffffffffff16146105c9576040517f08c379a00000000000000000000000000000000000000000000000000000000081526004016105c090611b7c565b60405180910390fd5b801561062b57600160008084815260200190815260200160002060040160006101000a81548160ff021916908315150217905550817f073e754af3e7d644af8000094f3c23bc20ef9c40cc057bffa060b0230adf00f460405160405180910390a25b5050565b600080600160008473ffffffffffffffffffffffffffffffffffffffff1673ffffffffffffffffffffffffffffffffffffffff16815260200190815260200160002054600260008573ffffffffffffffffffffffffffffffffffffffff1673ffffffffffffffffffffffffffffffffffffffff16815260200190815260200160002060009054906101000a900460ff1691509150915091565b600260003373ffffffffffffffffffffffffffffffffffffffff1673ffffffffffffffffffffffffffffffffffffffff16815260200190815260200160002060009054906101000a900460ff1615610755576040517f08c379a000000000000000000000000000000000000000000000000000000000815260040161074c90611be8565b60405180910390fd5b610190600160003373ffffffffffffffffffffffffffffffffffffffff1673ffffffffffffffffffffffffffffffffffffffff168152602001908152602001600020819055506001600260003373ffffffffffffffffffffffffffffffffffffffff1673ffffffffffffffffffffffffffffffffffffffff16815260200190815260200160002060006101000a81548160ff021916908315150217905550565b600460009054906101000a900473ffffffffffffffffffffffffffffffffffffffff1673ffffffffffffffffffffffffffffffffffffffff163373ffffffffffffffffffffffffffffffffffffffff1614610885576040517f08c379a000000000000000000000000000000000000000000000000000000000815260040161087c90611c7a565b60405180910390fd5b80600360006101000a81548173ffffffffffffffffffffffffffffffffffffffff021916908373ffffffffffffffffffffffffffffffffffffffff16021790555050565b600360009054906101000a900473ffffffffffffffffffffffffffffffffffffffff1681565b6000600260003373ffffffffffffffffffffffffffffffffffffffff1673ffffffffffffffffffffffffffffffffffffffff16815260200190815260200160002060009054906101000a900460ff1661097d576040517f08c379a000000000000000000000000000000000000000000000000000000000815260040161097490611d0c565b60405180910390fd5b600160003373ffffffffffffffffffffffffffffffffffffffff1673ffffffffffffffffffffffffffffffffffffffff16815260200190815260200160002054905090565b606060008383905067ffffffffffffffff8111156109e3576109e2611d2c565b5b604051908082528060200260200182016040528015610a1c57816020015b610a0961151b565b815260200190600190039081610a015790505b50905060005b84849050811015610b3857600080868684818110610a4357610a42611d5b565b5b9050602002013581526020019081526020016000206040518060c0016040529081600082015481526020016001820160009054906101000a900473ffffffffffffffffffffffffffffffffffffffff1673ffffffffffffffffffffffffffffffffffffffff1673ffffffffffffffffffffffffffffffffffffffff16815260200160028201548152602001600382015481526020016004820160009054906101000a900460ff161515151581526020016004820160019054906101000a900460ff161515151581525050828281518110610b2057610b1f611d5b565b5b60200260200101819052508080600101915050610a22565b508091505092915050565b60016020528060005260406000206000915090505481565b600460009054906101000a900473ffffffffffffffffffffffffffffffffffffffff1681565b600360009054906101000a900473ffffffffffffffffffffffffffffffffffffffff1673ffffffffffffffffffffffffffffffffffffffff163373ffffffffffffffffffffffffffffffffffffffff1614610c11576040517f08c379a0000000000000000000000000000000000000000000000000000000008152600401610c0890611b7c565b60405180910390fd5b60005b600680549050811015610cd2578160068281548110610c3657610c35611d5b565b5b906000526020600020015403610cc55760066001600680549050610c5a9190611db9565b81548110610c6b57610c6a611d5b565b5b906000526020600020015460068281548110610c8a57610c89611d5b565b5b90600052602060002001819055506006805480610caa57610ca9611ded565b5b60019003818190600052602060002001600090559055610cd2565b8080600101915050610c14565b5050565b60003342604051602001610ceb929190611e85565b6040516020818303038152906040528051906020012060001c90506040518060c001604052808281526020013373ffffffffffffffffffffffffffffffffffffffff1681526020018481526020018342610d459190611eb1565b8152602001600015158152602001600015158152506000808381526020019081526020016000206000820151816000015560208201518160010160006101000a81548173ffffffffffffffffffffffffffffffffffffffff021916908373ffffffffffffffffffffffffffffffffffffffff160217905550604082015181600201556060820151816003015560808201518160040160006101000a81548160ff02191690831515021790555060a08201518160040160016101000a81548160ff021916908315150217905550905050600560003373ffffffffffffffffffffffffffffffffffffffff1673ffffffffffffffffffffffffffffffffffffffff16815260200190815260200160002081908060018154018082558091505060019003906000526020600020016000909190919091505560068190806001815401808255809150506001900390600052602060002001600090919091909150553373ffffffffffffffffffffffffffffffffffffffff16817f97e04be2fd6414727fe9d0400464568f4384aa8b06264119565ca8f6cc2a4b7a85604051610eea9190611752565b60405180910390a3505050565b60008082815260200190815260200160002060040160009054906101000a900460ff16610f59576040517f08c379a0000000000000000000000000000000000000000000000000000000008152600401610f5090611f31565b60405180910390fd5b60008082815260200190815260200160002060040160019054906101000a900460ff1615610fbc576040517f08c379a0000000000000000000000000000000000000000000000000000000008152600401610fb390611f9d565b60405180910390fd5b600080828152602001908152602001600020600201543414611013576040517f08c379a000000000000000000000000000000000000000000000000000000000815260040161100a90612009565b60405180910390fd5b600160008083815260200190815260200160002060040160016101000a81548160ff02191690831515021790555061104c336001611240565b807f9a7851747cd7ffb3fe0a32caf3da48b31f27cebe131267051640f8b72fc4718660405160405180910390a250565b60008082815260200190815260200160002060040160009054906101000a900460ff166110de576040517f08c379a00000000000000000000000000000000000000000000000000000000081526004016110d590612075565b60405180910390fd5b60008082815260200190815260200160002060010160009054906101000a900473ffffffffffffffffffffffffffffffffffffffff1673ffffffffffffffffffffffffffffffffffffffff166108fc600080848152602001908152602001600020600201549081150290604051600060405180830381858888f1935050505015801561116e573d6000803e3d6000fd5b5050565b60006020528060005260406000206000915090508060000154908060010160009054906101000a900473ffffffffffffffffffffffffffffffffffffffff16908060020154908060030154908060040160009054906101000a900460ff16908060040160019054906101000a900460ff16905086565b6060600680548060200260200160405190810160405280929190818152602001828054801561123657602002820191906000526020600020905b815481526020019060010190808311611222575b5050505050905090565b600260008373ffffffffffffffffffffffffffffffffffffffff1673ffffffffffffffffffffffffffffffffffffffff16815260200190815260200160002060009054906101000a900460ff16611334576101f4600160008473ffffffffffffffffffffffffffffffffffffffff1673ffffffffffffffffffffffffffffffffffffffff168152602001908152602001600020819055506001600260008473ffffffffffffffffffffffffffffffffffffffff1673ffffffffffffffffffffffffffffffffffffffff16815260200190815260200160002060006101000a81548160ff021916908315150217905550611517565b801561142a5761033e600160008473ffffffffffffffffffffffffffffffffffffffff1673ffffffffffffffffffffffffffffffffffffffff16815260200190815260200160002054116113de576014600160008473ffffffffffffffffffffffffffffffffffffffff1673ffffffffffffffffffffffffffffffffffffffff16815260200190815260200160002060008282546113d29190611eb1565b92505081905550611425565b610352600160008473ffffffffffffffffffffffffffffffffffffffff1673ffffffffffffffffffffffffffffffffffffffff168152602001908152602001600020819055505b611516565b610140600160008473ffffffffffffffffffffffffffffffffffffffff1673ffffffffffffffffffffffffffffffffffffffff16815260200190815260200160002054106114ce576014600160008473ffffffffffffffffffffffffffffffffffffffff1673ffffffffffffffffffffffffffffffffffffffff16815260200190815260200160002060008282546114c29190611db9565b92505081905550611515565b61012c600160008473ffffffffffffffffffffffffffffffffffffffff1673ffffffffffffffffffffffffffffffffffffffff168152602001908152602001600020819055505b5b5b5050565b6040518060c0016040528060008152602001600073ffffffffffffffffffffffffffffffffffffffff16815260200160008152602001600081526020016000151581526020016000151581525090565b600080fd5b600080fd5b600073ffffffffffffffffffffffffffffffffffffffff82169050919050565b60006115a082611575565b9050919050565b6115b081611595565b81146115bb57600080fd5b50565b6000813590506115cd816115a7565b92915050565b6000602082840312156115e9576115e861156b565b5b60006115f7848285016115be565b91505092915050565b600081519050919050565b600082825260208201905092915050565b6000819050602082019050919050565b6000819050919050565b61163f8161162c565b82525050565b60006116518383611636565b60208301905092915050565b6000602082019050919050565b600061167582611600565b61167f818561160b565b935061168a8361161c565b8060005b838110156116bb5781516116a28882611645565b97506116ad8361165d565b92505060018101905061168e565b5085935050505092915050565b600060208201905081810360008301526116e2818461166a565b905092915050565b6116f38161162c565b81146116fe57600080fd5b50565b600081359050611710816116ea565b92915050565b60006020828403121561172c5761172b61156b565b5b600061173a84828501611701565b91505092915050565b61174c8161162c565b82525050565b60006020820190506117676000830184611743565b92915050565b60008115159050919050565b6117828161176d565b82525050565b600060208201905061179d6000830184611779565b92915050565b6117ac8161176d565b81146117b757600080fd5b50565b6000813590506117c9816117a3565b92915050565b600080604083850312156117e6576117e561156b565b5b60006117f485828601611701565b9250506020611805858286016117ba565b9150509250929050565b60006040820190506118246000830185611743565b6118316020830184611779565b9392505050565b61184181611595565b82525050565b600060208201905061185c6000830184611838565b92915050565b600080fd5b600080fd5b600080fd5b60008083601f84011261188757611886611862565b5b8235905067ffffffffffffffff8111156118a4576118a3611867565b5b6020830191508360208202830111156118c0576118bf61186c565b5b9250929050565b600080602083850312156118de576118dd61156b565b5b600083013567ffffffffffffffff8111156118fc576118fb611570565b5b61190885828601611871565b92509250509250929050565b600081519050919050565b600082825260208201905092915050565b6000819050602082019050919050565b61194981611595565b82525050565b6119588161176d565b82525050565b60c0820160008201516119746000850182611636565b5060208201516119876020850182611940565b50604082015161199a6040850182611636565b5060608201516119ad6060850182611636565b5060808201516119c0608085018261194f565b5060a08201516119d360a085018261194f565b50505050565b60006119e5838361195e565b60c08301905092915050565b6000602082019050919050565b6000611a0982611914565b611a13818561191f565b9350611a1e83611930565b8060005b83811015611a4f578151611a3688826119d9565b9750611a41836119f1565b925050600181019050611a22565b5085935050505092915050565b60006020820190508181036000830152611a7681846119fe565b905092915050565b60008060408385031215611a9557611a9461156b565b5b6000611aa385828601611701565b9250506020611ab485828601611701565b9150509250929050565b600060c082019050611ad36000830189611743565b611ae06020830188611838565b611aed6040830187611743565b611afa6060830186611743565b611b076080830185611779565b611b1460a0830184611779565b979650505050505050565b600082825260208201905092915050565b7f4f6e6c792044414f2063616e2063616c6c20746869732066756e6374696f6e00600082015250565b6000611b66601f83611b1f565b9150611b7182611b30565b602082019050919050565b60006020820190508181036000830152611b9581611b59565b9050919050565b7f5573657220616c7265616479206861732061206372656469742073636f726500600082015250565b6000611bd2601f83611b1f565b9150611bdd82611b9c565b602082019050919050565b60006020820190508181036000830152611c0181611bc5565b9050919050565b7f4f6e6c79206f776e65722063616e2063616c6c20746869732066756e6374696f60008201527f6e00000000000000000000000000000000000000000000000000000000000000602082015250565b6000611c64602183611b1f565b9150611c6f82611c08565b604082019050919050565b60006020820190508181036000830152611c9381611c57565b9050919050565b7f5573657220646f6573206e6f7420686176652061206372656469742073636f7260008201527f6500000000000000000000000000000000000000000000000000000000000000602082015250565b6000611cf6602183611b1f565b9150611d0182611c9a565b604082019050919050565b60006020820190508181036000830152611d2581611ce9565b9050919050565b7f4e487b7100000000000000000000000000000000000000000000000000000000600052604160045260246000fd5b7f4e487b7100000000000000000000000000000000000000000000000000000000600052603260045260246000fd5b7f4e487b7100000000000000000000000000000000000000000000000000000000600052601160045260246000fd5b6000611dc48261162c565b9150611dcf8361162c565b9250828203905081811115611de757611de6611d8a565b5b92915050565b7f4e487b7100000000000000000000000000000000000000000000000000000000600052603160045260246000fd5b60008160601b9050919050565b6000611e3482611e1c565b9050919050565b6000611e4682611e29565b9050919050565b611e5e611e5982611595565b611e3b565b82525050565b6000819050919050565b611e7f611e7a8261162c565b611e64565b82525050565b6000611e918285611e4d565b601482019150611ea18284611e6e565b6020820191508190509392505050565b6000611ebc8261162c565b9150611ec78361162c565b9250828201905080821115611edf57611ede611d8a565b5b92915050565b7f4c6f616e206e6f7420617070726f766564207965740000000000000000000000600082015250565b6000611f1b601583611b1f565b9150611f2682611ee5565b602082019050919050565b60006020820190508181036000830152611f4a81611f0e565b9050919050565b7f4c6f616e20616c72656164792070616964000000000000000000000000000000600082015250565b6000611f87601183611b1f565b9150611f9282611f51565b602082019050919050565b60006020820190508181036000830152611fb681611f7a565b9050919050565b7f496e636f72726563742072657061796d656e7420616d6f756e74000000000000600082015250565b6000611ff3601a83611b1f565b9150611ffe82611fbd565b602082019050919050565b6000602082019050818103600083015261202281611fe6565b9050919050565b7f4c6f616e206e6f7420617070726f766564000000000000000000000000000000600082015250565b600061205f601183611b1f565b915061206a82612029565b602082019050919050565b6000602082019050818103600083015261208e81612052565b905091905056fea2646970667358221220d7e54b0dd7a94c40eca33bd7c82a17e67b238360c1215d5052389159e291a69464736f6c634300081c0033",
  "linkReferences": {},
  "deployedLinkReferences": {}
}