{
  "_format": "hh-sol-artifact-1",
  "contractName": "LoanContract",
  "sourceName": "contracts/LoanContract.sol",
  "abi": [
    {
      "inputs": [
        {
          "internalType": "address",
          "name": "",
          "type": "address"
        }
      ],
      "name": "creditScores",
      "outputs": [
        {
          "internalType": "uint256",
          "name": "",
          "type": "uint256"
        }
      ],
      "stateMutability": "view",
      "type": "function"
    },
    {
      "inputs": [
        {
          "internalType": "uint256",
          "name": "loanId",
          "type": "uint256"
        }
      ],
      "name": "disburseLoan",
      "outputs": [],
      "stateMutability": "payable",
      "type": "function"
    },
    {
      "inputs": [],
      "name": "getCreditScore",
      "outputs": [
        {
          "internalType": "uint256",
          "name": "",
          "type": "uint256"
        }
      ],
      "stateMutability": "view",
      "type": "function"
    },
    {
      "inputs": [
        {
          "internalType": "uint256[]",
          "name": "loanIds",
          "type": "uint256[]"
        }
      ],
      "name": "getMultipleLoans",
      "outputs": [
        {
          "components": [
            {
              "internalType": "uint256",
              "name": "id",
              "type": "uint256"
            },
            {
              "internalType": "address",
              "name": "borrower",
              "type": "address"
            },
            {
              "internalType": "uint256",
              "name": "amount",
              "type": "uint256"
            },
            {
              "internalType": "uint256",
              "name": "repaymentDue",
              "type": "uint256"
            },
            {
              "internalType": "bool",
              "name": "isApproved",
              "type": "bool"
            },
            {
              "internalType": "bool",
              "name": "isPaid",
              "type": "bool"
            }
          ],
          "internalType": "struct LoanContract.Loan[]",
          "name": "",
          "type": "tuple[]"
        }
      ],
      "stateMutability": "view",
      "type": "function"
    },
    {
      "inputs": [
        {
          "internalType": "address",
          "name": "user",
          "type": "address"
        }
      ],
      "name": "getUserLoans",
      "outputs": [
        {
          "internalType": "uint256[]",
          "name": "",
          "type": "uint256[]"
        }
      ],
      "stateMutability": "view",
      "type": "function"
    },
    {
      "inputs": [
        {
          "internalType": "address",
          "name": "",
          "type": "address"
        }
      ],
      "name": "hasCreditScore",
      "outputs": [
        {
          "internalType": "bool",
          "name": "",
          "type": "bool"
        }
      ],
      "stateMutability": "view",
      "type": "function"
    },
    {
      "inputs": [],
      "name": "initializeCreditScore",
      "outputs": [],
      "stateMutability": "nonpayable",
      "type": "function"
    },
    {
      "inputs": [
        {
          "internalType": "uint256",
          "name": "",
          "type": "uint256"
        }
      ],
      "name": "loans",
      "outputs": [
        {
          "internalType": "uint256",
          "name": "id",
          "type": "uint256"
        },
        {
          "internalType": "address",
          "name": "borrower",
          "type": "address"
        },
        {
          "internalType": "uint256",
          "name": "amount",
          "type": "uint256"
        },
        {
          "internalType": "uint256",
          "name": "repaymentDue",
          "type": "uint256"
        },
        {
          "internalType": "bool",
          "name": "isApproved",
          "type": "bool"
        },
        {
          "internalType": "bool",
          "name": "isPaid",
          "type": "bool"
        }
      ],
      "stateMutability": "view",
      "type": "function"
    },
    {
      "inputs": [
        {
          "internalType": "uint256",
          "name": "loanId",
          "type": "uint256"
        }
      ],
      "name": "repayLoan",
      "outputs": [],
      "stateMutability": "payable",
      "type": "function"
    },
    {
      "inputs": [
        {
          "internalType": "uint256",
          "name": "amount",
          "type": "uint256"
        },
        {
          "internalType": "uint256",
          "name": "duration",
          "type": "uint256"
        }
      ],
      "name": "requestLoan",
      "outputs": [],
      "stateMutability": "nonpayable",
      "type": "function"
    },
    {
      "inputs": [
        {
          "internalType": "uint256",
          "name": "loanId",
          "type": "uint256"
        },
        {
          "internalType": "bool",
          "name": "vote",
          "type": "bool"
        }
      ],
      "name": "voteOnLoan",
      "outputs": [],
      "stateMutability": "nonpayable",
      "type": "function"
    }
  ],
  "bytecode": "0x6080604052348015600f57600080fd5b506117168061001f6000396000f3fe60806040526004361061009c5760003560e01c80636c773270116100645780636c7732701461018657806380bb7273146101c3578063aa452fa614610200578063ab7b1c8914610229578063b73e4da014610245578063e1ec3c68146102615761009c565b806302bf321f146100a157806328db1594146100de57806331488c7f1461011b57806338fcfb5f146101445780635da195381461015b575b600080fd5b3480156100ad57600080fd5b506100c860048036038101906100c39190610e67565b6102a3565b6040516100d59190610f5c565b60405180910390f35b3480156100ea57600080fd5b5061010560048036038101906101009190610e67565b61033a565b6040516101129190610f99565b60405180910390f35b34801561012757600080fd5b50610142600480360381019061013d919061100c565b61035a565b005b34801561015057600080fd5b50610159610393565b005b34801561016757600080fd5b506101706104c0565b60405161017d919061105b565b60405180910390f35b34801561019257600080fd5b506101ad60048036038101906101a891906110db565b610593565b6040516101ba9190611270565b60405180910390f35b3480156101cf57600080fd5b506101ea60048036038101906101e59190610e67565b610714565b6040516101f7919061105b565b60405180910390f35b34801561020c57600080fd5b5061022760048036038101906102229190611292565b61072c565b005b610243600480360381019061023e91906112d2565b6108d5565b005b61025f600480360381019061025a91906112d2565b610968565b005b34801561026d57600080fd5b50610288600480360381019061028391906112d2565b610a5e565b60405161029a9695949392919061130e565b60405180910390f35b6060600360008373ffffffffffffffffffffffffffffffffffffffff1673ffffffffffffffffffffffffffffffffffffffff16815260200190815260200160002080548060200260200160405190810160405280929190818152602001828054801561032e57602002820191906000526020600020905b81548152602001906001019080831161031a575b50505050509050919050565b60026020528060005260406000206000915054906101000a900460ff1681565b801561038f57600160008084815260200190815260200160002060040160006101000a81548160ff0219169083151502179055505b5050565b600260003373ffffffffffffffffffffffffffffffffffffffff1673ffffffffffffffffffffffffffffffffffffffff16815260200190815260200160002060009054906101000a900460ff1615610420576040517f08c379a0000000000000000000000000000000000000000000000000000000008152600401610417906113cc565b60405180910390fd5b610190600160003373ffffffffffffffffffffffffffffffffffffffff1673ffffffffffffffffffffffffffffffffffffffff168152602001908152602001600020819055506001600260003373ffffffffffffffffffffffffffffffffffffffff1673ffffffffffffffffffffffffffffffffffffffff16815260200190815260200160002060006101000a81548160ff021916908315150217905550565b6000600260003373ffffffffffffffffffffffffffffffffffffffff1673ffffffffffffffffffffffffffffffffffffffff16815260200190815260200160002060009054906101000a900460ff1661054e576040517f08c379a00000000000000000000000000000000000000000000000000000000081526004016105459061145e565b60405180910390fd5b600160003373ffffffffffffffffffffffffffffffffffffffff1673ffffffffffffffffffffffffffffffffffffffff16815260200190815260200160002054905090565b606060008383905067ffffffffffffffff8111156105b4576105b361147e565b5b6040519080825280602002602001820160405280156105ed57816020015b6105da610daf565b8152602001906001900390816105d25790505b50905060005b8484905081101561070957600080868684818110610614576106136114ad565b5b9050602002013581526020019081526020016000206040518060c0016040529081600082015481526020016001820160009054906101000a900473ffffffffffffffffffffffffffffffffffffffff1673ffffffffffffffffffffffffffffffffffffffff1673ffffffffffffffffffffffffffffffffffffffff16815260200160028201548152602001600382015481526020016004820160009054906101000a900460ff161515151581526020016004820160019054906101000a900460ff1615151515815250508282815181106106f1576106f06114ad565b5b602002602001018190525080806001019150506105f3565b508091505092915050565b60016020528060005260406000206000915090505481565b60003342604051602001610741929190611545565b6040516020818303038152906040528051906020012060001c90506040518060c001604052808281526020013373ffffffffffffffffffffffffffffffffffffffff168152602001848152602001834261079b91906115a0565b8152602001600015158152602001600015158152506000808381526020019081526020016000206000820151816000015560208201518160010160006101000a81548173ffffffffffffffffffffffffffffffffffffffff021916908373ffffffffffffffffffffffffffffffffffffffff160217905550604082015181600201556060820151816003015560808201518160040160006101000a81548160ff02191690831515021790555060a08201518160040160016101000a81548160ff021916908315150217905550905050600360003373ffffffffffffffffffffffffffffffffffffffff1673ffffffffffffffffffffffffffffffffffffffff168152602001908152602001600020819080600181540180825580915050600190039060005260206000200160009091909190915055505050565b60008082815260200190815260200160002060020154341461092c576040517f08c379a000000000000000000000000000000000000000000000000000000000815260040161092390611620565b60405180910390fd5b600160008083815260200190815260200160002060040160016101000a81548160ff021916908315150217905550610965336001610ad4565b50565b60008082815260200190815260200160002060040160009054906101000a900460ff166109ca576040517f08c379a00000000000000000000000000000000000000000000000000000000081526004016109c19061168c565b60405180910390fd5b60008082815260200190815260200160002060010160009054906101000a900473ffffffffffffffffffffffffffffffffffffffff1673ffffffffffffffffffffffffffffffffffffffff166108fc600080848152602001908152602001600020600201549081150290604051600060405180830381858888f19350505050158015610a5a573d6000803e3d6000fd5b5050565b60006020528060005260406000206000915090508060000154908060010160009054906101000a900473ffffffffffffffffffffffffffffffffffffffff16908060020154908060030154908060040160009054906101000a900460ff16908060040160019054906101000a900460ff16905086565b600260008373ffffffffffffffffffffffffffffffffffffffff1673ffffffffffffffffffffffffffffffffffffffff16815260200190815260200160002060009054906101000a900460ff16610bc8576101f4600160008473ffffffffffffffffffffffffffffffffffffffff1673ffffffffffffffffffffffffffffffffffffffff168152602001908152602001600020819055506001600260008473ffffffffffffffffffffffffffffffffffffffff1673ffffffffffffffffffffffffffffffffffffffff16815260200190815260200160002060006101000a81548160ff021916908315150217905550610dab565b8015610cbe5761033e600160008473ffffffffffffffffffffffffffffffffffffffff1673ffffffffffffffffffffffffffffffffffffffff1681526020019081526020016000205411610c72576014600160008473ffffffffffffffffffffffffffffffffffffffff1673ffffffffffffffffffffffffffffffffffffffff1681526020019081526020016000206000828254610c6691906115a0565b92505081905550610cb9565b610352600160008473ffffffffffffffffffffffffffffffffffffffff1673ffffffffffffffffffffffffffffffffffffffff168152602001908152602001600020819055505b610daa565b610140600160008473ffffffffffffffffffffffffffffffffffffffff1673ffffffffffffffffffffffffffffffffffffffff1681526020019081526020016000205410610d62576014600160008473ffffffffffffffffffffffffffffffffffffffff1673ffffffffffffffffffffffffffffffffffffffff1681526020019081526020016000206000828254610d5691906116ac565b92505081905550610da9565b61012c600160008473ffffffffffffffffffffffffffffffffffffffff1673ffffffffffffffffffffffffffffffffffffffff168152602001908152602001600020819055505b5b5b5050565b6040518060c0016040528060008152602001600073ffffffffffffffffffffffffffffffffffffffff16815260200160008152602001600081526020016000151581526020016000151581525090565b600080fd5b600080fd5b600073ffffffffffffffffffffffffffffffffffffffff82169050919050565b6000610e3482610e09565b9050919050565b610e4481610e29565b8114610e4f57600080fd5b50565b600081359050610e6181610e3b565b92915050565b600060208284031215610e7d57610e7c610dff565b5b6000610e8b84828501610e52565b91505092915050565b600081519050919050565b600082825260208201905092915050565b6000819050602082019050919050565b6000819050919050565b610ed381610ec0565b82525050565b6000610ee58383610eca565b60208301905092915050565b6000602082019050919050565b6000610f0982610e94565b610f138185610e9f565b9350610f1e83610eb0565b8060005b83811015610f4f578151610f368882610ed9565b9750610f4183610ef1565b925050600181019050610f22565b5085935050505092915050565b60006020820190508181036000830152610f768184610efe565b905092915050565b60008115159050919050565b610f9381610f7e565b82525050565b6000602082019050610fae6000830184610f8a565b92915050565b610fbd81610ec0565b8114610fc857600080fd5b50565b600081359050610fda81610fb4565b92915050565b610fe981610f7e565b8114610ff457600080fd5b50565b60008135905061100681610fe0565b92915050565b6000806040838503121561102357611022610dff565b5b600061103185828601610fcb565b925050602061104285828601610ff7565b9150509250929050565b61105581610ec0565b82525050565b6000602082019050611070600083018461104c565b92915050565b600080fd5b600080fd5b600080fd5b60008083601f84011261109b5761109a611076565b5b8235905067ffffffffffffffff8111156110b8576110b761107b565b5b6020830191508360208202830111156110d4576110d3611080565b5b9250929050565b600080602083850312156110f2576110f1610dff565b5b600083013567ffffffffffffffff8111156111105761110f610e04565b5b61111c85828601611085565b92509250509250929050565b600081519050919050565b600082825260208201905092915050565b6000819050602082019050919050565b61115d81610e29565b82525050565b61116c81610f7e565b82525050565b60c0820160008201516111886000850182610eca565b50602082015161119b6020850182611154565b5060408201516111ae6040850182610eca565b5060608201516111c16060850182610eca565b5060808201516111d46080850182611163565b5060a08201516111e760a0850182611163565b50505050565b60006111f98383611172565b60c08301905092915050565b6000602082019050919050565b600061121d82611128565b6112278185611133565b935061123283611144565b8060005b8381101561126357815161124a88826111ed565b975061125583611205565b925050600181019050611236565b5085935050505092915050565b6000602082019050818103600083015261128a8184611212565b905092915050565b600080604083850312156112a9576112a8610dff565b5b60006112b785828601610fcb565b92505060206112c885828601610fcb565b9150509250929050565b6000602082840312156112e8576112e7610dff565b5b60006112f684828501610fcb565b91505092915050565b61130881610e29565b82525050565b600060c082019050611323600083018961104c565b61133060208301886112ff565b61133d604083018761104c565b61134a606083018661104c565b6113576080830185610f8a565b61136460a0830184610f8a565b979650505050505050565b600082825260208201905092915050565b7f5573657220616c7265616479206861732061206372656469742073636f726500600082015250565b60006113b6601f8361136f565b91506113c182611380565b602082019050919050565b600060208201905081810360008301526113e5816113a9565b9050919050565b7f5573657220646f6573206e6f7420686176652061206372656469742073636f7260008201527f6500000000000000000000000000000000000000000000000000000000000000602082015250565b600061144860218361136f565b9150611453826113ec565b604082019050919050565b600060208201905081810360008301526114778161143b565b9050919050565b7f4e487b7100000000000000000000000000000000000000000000000000000000600052604160045260246000fd5b7f4e487b7100000000000000000000000000000000000000000000000000000000600052603260045260246000fd5b60008160601b9050919050565b60006114f4826114dc565b9050919050565b6000611506826114e9565b9050919050565b61151e61151982610e29565b6114fb565b82525050565b6000819050919050565b61153f61153a82610ec0565b611524565b82525050565b6000611551828561150d565b601482019150611561828461152e565b6020820191508190509392505050565b7f4e487b7100000000000000000000000000000000000000000000000000000000600052601160045260246000fd5b60006115ab82610ec0565b91506115b683610ec0565b92508282019050808211156115ce576115cd611571565b5b92915050565b7f496e636f72726563742072657061796d656e7420616d6f756e74000000000000600082015250565b600061160a601a8361136f565b9150611615826115d4565b602082019050919050565b60006020820190508181036000830152611639816115fd565b9050919050565b7f4c6f616e206e6f7420617070726f766564000000000000000000000000000000600082015250565b600061167660118361136f565b915061168182611640565b602082019050919050565b600060208201905081810360008301526116a581611669565b9050919050565b60006116b782610ec0565b91506116c283610ec0565b92508282039050818111156116da576116d9611571565b5b9291505056fea26469706673582212209ae9ec7d9a5925175ad64d5d7840043237fc1e78125552fe5a036883235ef60b64736f6c634300081c0033",
  "linkReferences": {},
  "deployedLinkReferences": {}
}