{
  "_format": "hh-sol-artifact-1",
  "contractName": "LoanContract",
  "sourceName": "contracts/LoanContract.sol",
  "abi": [
    {
      "inputs": [
        {
          "internalType": "uint256",
          "name": "loanId",
          "type": "uint256"
        }
      ],
      "name": "disburseLoan",
      "outputs": [],
      "stateMutability": "payable",
      "type": "function"
    },
    {
      "inputs": [
        {
          "internalType": "uint256",
          "name": "",
          "type": "uint256"
        }
      ],
      "name": "loans",
      "outputs": [
        {
          "internalType": "uint256",
          "name": "id",
          "type": "uint256"
        },
        {
          "internalType": "address",
          "name": "borrower",
          "type": "address"
        },
        {
          "internalType": "uint256",
          "name": "amount",
          "type": "uint256"
        },
        {
          "internalType": "uint256",
          "name": "repaymentDue",
          "type": "uint256"
        },
        {
          "internalType": "bool",
          "name": "isApproved",
          "type": "bool"
        },
        {
          "internalType": "bool",
          "name": "isPaid",
          "type": "bool"
        }
      ],
      "stateMutability": "view",
      "type": "function"
    },
    {
      "inputs": [
        {
          "internalType": "uint256",
          "name": "loanId",
          "type": "uint256"
        }
      ],
      "name": "repayLoan",
      "outputs": [],
      "stateMutability": "payable",
      "type": "function"
    },
    {
      "inputs": [
        {
          "internalType": "uint256",
          "name": "amount",
          "type": "uint256"
        },
        {
          "internalType": "uint256",
          "name": "duration",
          "type": "uint256"
        }
      ],
      "name": "requestLoan",
      "outputs": [],
      "stateMutability": "nonpayable",
      "type": "function"
    },
    {
      "inputs": [
        {
          "internalType": "uint256",
          "name": "loanId",
          "type": "uint256"
        },
        {
          "internalType": "bool",
          "name": "vote",
          "type": "bool"
        }
      ],
      "name": "voteOnLoan",
      "outputs": [],
      "stateMutability": "nonpayable",
      "type": "function"
    }
  ],
  "bytecode": "0x6080604052348015600f57600080fd5b506108828061001f6000396000f3fe60806040526004361061004a5760003560e01c806331488c7f1461004f578063aa452fa614610078578063ab7b1c89146100a1578063b73e4da0146100bd578063e1ec3c68146100d9575b600080fd5b34801561005b57600080fd5b50610076600480360381019061007191906104fe565b61011b565b005b34801561008457600080fd5b5061009f600480360381019061009a919061053e565b610154565b005b6100bb60048036038101906100b6919061057e565b610297565b005b6100d760048036038101906100d2919061057e565b61031f565b005b3480156100e557600080fd5b5061010060048036038101906100fb919061057e565b610415565b6040516101129695949392919061060a565b60405180910390f35b801561015057600160008084815260200190815260200160002060040160006101000a81548160ff0219169083151502179055505b5050565b600033426040516020016101699291906106d4565b6040516020818303038152906040528051906020012060001c90506040518060c001604052808281526020013373ffffffffffffffffffffffffffffffffffffffff16815260200184815260200183426101c3919061072f565b8152602001600015158152602001600015158152506000808381526020019081526020016000206000820151816000015560208201518160010160006101000a81548173ffffffffffffffffffffffffffffffffffffffff021916908373ffffffffffffffffffffffffffffffffffffffff160217905550604082015181600201556060820151816003015560808201518160040160006101000a81548160ff02191690831515021790555060a08201518160040160016101000a81548160ff021916908315150217905550905050505050565b6000808281526020019081526020016000206002015434146102ee576040517f08c379a00000000000000000000000000000000000000000000000000000000081526004016102e5906107c0565b60405180910390fd5b600160008083815260200190815260200160002060040160016101000a81548160ff02191690831515021790555050565b60008082815260200190815260200160002060040160009054906101000a900460ff16610381576040517f08c379a00000000000000000000000000000000000000000000000000000000081526004016103789061082c565b60405180910390fd5b60008082815260200190815260200160002060010160009054906101000a900473ffffffffffffffffffffffffffffffffffffffff1673ffffffffffffffffffffffffffffffffffffffff166108fc600080848152602001908152602001600020600201549081150290604051600060405180830381858888f19350505050158015610411573d6000803e3d6000fd5b5050565b60006020528060005260406000206000915090508060000154908060010160009054906101000a900473ffffffffffffffffffffffffffffffffffffffff16908060020154908060030154908060040160009054906101000a900460ff16908060040160019054906101000a900460ff16905086565b600080fd5b6000819050919050565b6104a381610490565b81146104ae57600080fd5b50565b6000813590506104c08161049a565b92915050565b60008115159050919050565b6104db816104c6565b81146104e657600080fd5b50565b6000813590506104f8816104d2565b92915050565b600080604083850312156105155761051461048b565b5b6000610523858286016104b1565b9250506020610534858286016104e9565b9150509250929050565b600080604083850312156105555761055461048b565b5b6000610563858286016104b1565b9250506020610574858286016104b1565b9150509250929050565b6000602082840312156105945761059361048b565b5b60006105a2848285016104b1565b91505092915050565b6105b481610490565b82525050565b600073ffffffffffffffffffffffffffffffffffffffff82169050919050565b60006105e5826105ba565b9050919050565b6105f5816105da565b82525050565b610604816104c6565b82525050565b600060c08201905061061f60008301896105ab565b61062c60208301886105ec565b61063960408301876105ab565b61064660608301866105ab565b61065360808301856105fb565b61066060a08301846105fb565b979650505050505050565b60008160601b9050919050565b60006106838261066b565b9050919050565b600061069582610678565b9050919050565b6106ad6106a8826105da565b61068a565b82525050565b6000819050919050565b6106ce6106c982610490565b6106b3565b82525050565b60006106e0828561069c565b6014820191506106f082846106bd565b6020820191508190509392505050565b7f4e487b7100000000000000000000000000000000000000000000000000000000600052601160045260246000fd5b600061073a82610490565b915061074583610490565b925082820190508082111561075d5761075c610700565b5b92915050565b600082825260208201905092915050565b7f496e636f72726563742072657061796d656e7420616d6f756e74000000000000600082015250565b60006107aa601a83610763565b91506107b582610774565b602082019050919050565b600060208201905081810360008301526107d98161079d565b9050919050565b7f4c6f616e206e6f7420617070726f766564000000000000000000000000000000600082015250565b6000610816601183610763565b9150610821826107e0565b602082019050919050565b6000602082019050818103600083015261084581610809565b905091905056fea2646970667358221220e24f938069d8b976b561a31b01a1075ef9ea0c9d578baefdfccf68a9e3e1876e64736f6c634300081c0033",
  "linkReferences": {},
  "deployedLinkReferences": {}
}