{
  "_format": "hh-sol-artifact-1",
  "contractName": "LoanContract",
  "sourceName": "contracts/LoanContract.sol",
  "abi": [
    {
      "inputs": [],
      "stateMutability": "nonpayable",
      "type": "constructor"
    },
    {
      "anonymous": false,
      "inputs": [
        {
          "indexed": true,
          "internalType": "address",
          "name": "user",
          "type": "address"
        },
        {
          "indexed": false,
          "internalType": "uint256",
          "name": "newScore",
          "type": "uint256"
        }
      ],
      "name": "CreditScoreUpdated",
      "type": "event"
    },
    {
      "anonymous": false,
      "inputs": [
        {
          "indexed": true,
          "internalType": "uint256",
          "name": "loanId",
          "type": "uint256"
        }
      ],
      "name": "LoanApproved",
      "type": "event"
    },
    {
      "anonymous": false,
      "inputs": [
        {
          "indexed": true,
          "internalType": "uint256",
          "name": "loanId",
          "type": "uint256"
        }
      ],
      "name": "LoanRepaid",
      "type": "event"
    },
    {
      "anonymous": false,
      "inputs": [
        {
          "indexed": true,
          "internalType": "uint256",
          "name": "loanId",
          "type": "uint256"
        },
        {
          "indexed": true,
          "internalType": "address",
          "name": "borrower",
          "type": "address"
        },
        {
          "indexed": false,
          "internalType": "uint256",
          "name": "amount",
          "type": "uint256"
        }
      ],
      "name": "LoanRequested",
      "type": "event"
    },
    {
      "inputs": [
        {
          "internalType": "address",
          "name": "",
          "type": "address"
        }
      ],
      "name": "creditScores",
      "outputs": [
        {
          "internalType": "uint256",
          "name": "",
          "type": "uint256"
        }
      ],
      "stateMutability": "view",
      "type": "function"
    },
    {
      "inputs": [],
      "name": "daoContract",
      "outputs": [
        {
          "internalType": "address",
          "name": "",
          "type": "address"
        }
      ],
      "stateMutability": "view",
      "type": "function"
    },
    {
      "inputs": [
        {
          "internalType": "uint256",
          "name": "loanId",
          "type": "uint256"
        }
      ],
      "name": "disburseLoan",
      "outputs": [],
      "stateMutability": "payable",
      "type": "function"
    },
    {
      "inputs": [],
      "name": "getCreditScore",
      "outputs": [
        {
          "internalType": "uint256",
          "name": "",
          "type": "uint256"
        }
      ],
      "stateMutability": "view",
      "type": "function"
    },
    {
      "inputs": [
        {
          "internalType": "address",
          "name": "user",
          "type": "address"
        }
      ],
      "name": "getCreditScoreByDAO",
      "outputs": [
        {
          "internalType": "uint256",
          "name": "",
          "type": "uint256"
        },
        {
          "internalType": "bool",
          "name": "",
          "type": "bool"
        }
      ],
      "stateMutability": "view",
      "type": "function"
    },
    {
      "inputs": [
        {
          "internalType": "uint256[]",
          "name": "loanIds",
          "type": "uint256[]"
        }
      ],
      "name": "getMultipleLoans",
      "outputs": [
        {
          "components": [
            {
              "internalType": "uint256",
              "name": "id",
              "type": "uint256"
            },
            {
              "internalType": "address",
              "name": "borrower",
              "type": "address"
            },
            {
              "internalType": "uint256",
              "name": "amount",
              "type": "uint256"
            },
            {
              "internalType": "uint256",
              "name": "repaymentDue",
              "type": "uint256"
            },
            {
              "internalType": "bool",
              "name": "isApproved",
              "type": "bool"
            },
            {
              "internalType": "bool",
              "name": "isPaid",
              "type": "bool"
            }
          ],
          "internalType": "struct LoanContract.Loan[]",
          "name": "",
          "type": "tuple[]"
        }
      ],
      "stateMutability": "view",
      "type": "function"
    },
    {
      "inputs": [],
      "name": "getPendingLoans",
      "outputs": [
        {
          "internalType": "uint256[]",
          "name": "",
          "type": "uint256[]"
        }
      ],
      "stateMutability": "view",
      "type": "function"
    },
    {
      "inputs": [
        {
          "internalType": "address",
          "name": "user",
          "type": "address"
        }
      ],
      "name": "getUserLoans",
      "outputs": [
        {
          "internalType": "uint256[]",
          "name": "",
          "type": "uint256[]"
        }
      ],
      "stateMutability": "view",
      "type": "function"
    },
    {
      "inputs": [
        {
          "internalType": "address",
          "name": "",
          "type": "address"
        }
      ],
      "name": "hasCreditScore",
      "outputs": [
        {
          "internalType": "bool",
          "name": "",
          "type": "bool"
        }
      ],
      "stateMutability": "view",
      "type": "function"
    },
    {
      "inputs": [],
      "name": "initializeCreditScore",
      "outputs": [],
      "stateMutability": "nonpayable",
      "type": "function"
    },
    {
      "inputs": [
        {
          "internalType": "uint256",
          "name": "",
          "type": "uint256"
        }
      ],
      "name": "loans",
      "outputs": [
        {
          "internalType": "uint256",
          "name": "id",
          "type": "uint256"
        },
        {
          "internalType": "address",
          "name": "borrower",
          "type": "address"
        },
        {
          "internalType": "uint256",
          "name": "amount",
          "type": "uint256"
        },
        {
          "internalType": "uint256",
          "name": "repaymentDue",
          "type": "uint256"
        },
        {
          "internalType": "bool",
          "name": "isApproved",
          "type": "bool"
        },
        {
          "internalType": "bool",
          "name": "isPaid",
          "type": "bool"
        }
      ],
      "stateMutability": "view",
      "type": "function"
    },
    {
      "inputs": [],
      "name": "owner",
      "outputs": [
        {
          "internalType": "address",
          "name": "",
          "type": "address"
        }
      ],
      "stateMutability": "view",
      "type": "function"
    },
    {
      "inputs": [
        {
          "internalType": "uint256",
          "name": "",
          "type": "uint256"
        }
      ],
      "name": "pendingLoans",
      "outputs": [
        {
          "internalType": "uint256",
          "name": "",
          "type": "uint256"
        }
      ],
      "stateMutability": "view",
      "type": "function"
    },
    {
      "inputs": [
        {
          "internalType": "uint256",
          "name": "loanId",
          "type": "uint256"
        }
      ],
      "name": "removePendingLoan",
      "outputs": [],
      "stateMutability": "nonpayable",
      "type": "function"
    },
    {
      "inputs": [
        {
          "internalType": "uint256",
          "name": "loanId",
          "type": "uint256"
        }
      ],
      "name": "repayLoan",
      "outputs": [],
      "stateMutability": "payable",
      "type": "function"
    },
    {
      "inputs": [
        {
          "internalType": "uint256",
          "name": "amount",
          "type": "uint256"
        },
        {
          "internalType": "uint256",
          "name": "duration",
          "type": "uint256"
        }
      ],
      "name": "requestLoan",
      "outputs": [],
      "stateMutability": "nonpayable",
      "type": "function"
    },
    {
      "inputs": [
        {
          "internalType": "address",
          "name": "_daoContract",
          "type": "address"
        }
      ],
      "name": "setDAOContract",
      "outputs": [],
      "stateMutability": "nonpayable",
      "type": "function"
    },
    {
      "inputs": [
        {
          "internalType": "uint256",
          "name": "loanId",
          "type": "uint256"
        },
        {
          "internalType": "bool",
          "name": "vote",
          "type": "bool"
        }
      ],
      "name": "voteOnLoan",
      "outputs": [],
      "stateMutability": "nonpayable",
      "type": "function"
    }
  ],
  "bytecode": "0x6080604052348015600f57600080fd5b5033600460006101000a81548173ffffffffffffffffffffffffffffffffffffffff021916908373ffffffffffffffffffffffffffffffffffffffff160217905550612158806100606000396000f3fe6080604052600436106101095760003560e01c80636c77327011610095578063aa452fa611610064578063aa452fa614610390578063ab7b1c89146103b9578063b73e4da0146103d5578063e1ec3c68146103f1578063ee24af5a1461043357610109565b80636c773270146102c257806380bb7273146102ff5780638da5cb5b1461033c5780639c4076301461036757610109565b8063326b7b55116100dc578063326b7b55146101ee57806338fcfb5f1461022c578063425d512a146102435780634a7ffcbc1461026c5780635da195381461029757610109565b806302bf321f1461010e57806314dea5a01461014b57806328db15941461018857806331488c7f146101c5575b600080fd5b34801561011a57600080fd5b5061013560048036038101906101309190611660565b61045e565b6040516101429190611755565b60405180910390f35b34801561015757600080fd5b50610172600480360381019061016d91906117a3565b6104f5565b60405161017f91906117df565b60405180910390f35b34801561019457600080fd5b506101af60048036038101906101aa9190611660565b610519565b6040516101bc9190611815565b60405180910390f35b3480156101d157600080fd5b506101ec60048036038101906101e7919061185c565b610539565b005b3480156101fa57600080fd5b5061021560048036038101906102109190611660565b61062f565b60405161022392919061189c565b60405180910390f35b34801561023857600080fd5b506102416106c8565b005b34801561024f57600080fd5b5061026a60048036038101906102659190611660565b6107f5565b005b34801561027857600080fd5b506102816108c9565b60405161028e91906118d4565b60405180910390f35b3480156102a357600080fd5b506102ac6108ef565b6040516102b991906117df565b60405180910390f35b3480156102ce57600080fd5b506102e960048036038101906102e49190611954565b6109c2565b6040516102f69190611ae9565b60405180910390f35b34801561030b57600080fd5b5061032660048036038101906103219190611660565b610b43565b60405161033391906117df565b60405180910390f35b34801561034857600080fd5b50610351610b5b565b60405161035e91906118d4565b60405180910390f35b34801561037357600080fd5b5061038e600480360381019061038991906117a3565b610b81565b005b34801561039c57600080fd5b506103b760048036038101906103b29190611b0b565b610cd6565b005b6103d360048036038101906103ce91906117a3565b610ef7565b005b6103ef60048036038101906103ea91906117a3565b61107c565b005b3480156103fd57600080fd5b50610418600480360381019061041391906117a3565b611172565b60405161042a96959493929190611b4b565b60405180910390f35b34801561043f57600080fd5b506104486111e8565b6040516104559190611755565b60405180910390f35b6060600560008373ffffffffffffffffffffffffffffffffffffffff1673ffffffffffffffffffffffffffffffffffffffff1681526020019081526020016000208054806020026020016040519081016040528092919081815260200182805480156104e957602002820191906000526020600020905b8154815260200190600101908083116104d5575b50505050509050919050565b6006818154811061050557600080fd5b906000526020600020016000915090505481565b60026020528060005260406000206000915054906101000a900460ff1681565b600360009054906101000a900473ffffffffffffffffffffffffffffffffffffffff1673ffffffffffffffffffffffffffffffffffffffff163373ffffffffffffffffffffffffffffffffffffffff16146105c9576040517f08c379a00000000000000000000000000000000000000000000000000000000081526004016105c090611c09565b60405180910390fd5b801561062b57600160008084815260200190815260200160002060040160006101000a81548160ff021916908315150217905550817f073e754af3e7d644af8000094f3c23bc20ef9c40cc057bffa060b0230adf00f460405160405180910390a25b5050565b600080600160008473ffffffffffffffffffffffffffffffffffffffff1673ffffffffffffffffffffffffffffffffffffffff16815260200190815260200160002054600260008573ffffffffffffffffffffffffffffffffffffffff1673ffffffffffffffffffffffffffffffffffffffff16815260200190815260200160002060009054906101000a900460ff1691509150915091565b600260003373ffffffffffffffffffffffffffffffffffffffff1673ffffffffffffffffffffffffffffffffffffffff16815260200190815260200160002060009054906101000a900460ff1615610755576040517f08c379a000000000000000000000000000000000000000000000000000000000815260040161074c90611c75565b60405180910390fd5b610190600160003373ffffffffffffffffffffffffffffffffffffffff1673ffffffffffffffffffffffffffffffffffffffff168152602001908152602001600020819055506001600260003373ffffffffffffffffffffffffffffffffffffffff1673ffffffffffffffffffffffffffffffffffffffff16815260200190815260200160002060006101000a81548160ff021916908315150217905550565b600460009054906101000a900473ffffffffffffffffffffffffffffffffffffffff1673ffffffffffffffffffffffffffffffffffffffff163373ffffffffffffffffffffffffffffffffffffffff1614610885576040517f08c379a000000000000000000000000000000000000000000000000000000000815260040161087c90611d07565b60405180910390fd5b80600360006101000a81548173ffffffffffffffffffffffffffffffffffffffff021916908373ffffffffffffffffffffffffffffffffffffffff16021790555050565b600360009054906101000a900473ffffffffffffffffffffffffffffffffffffffff1681565b6000600260003373ffffffffffffffffffffffffffffffffffffffff1673ffffffffffffffffffffffffffffffffffffffff16815260200190815260200160002060009054906101000a900460ff1661097d576040517f08c379a000000000000000000000000000000000000000000000000000000000815260040161097490611d99565b60405180910390fd5b600160003373ffffffffffffffffffffffffffffffffffffffff1673ffffffffffffffffffffffffffffffffffffffff16815260200190815260200160002054905090565b606060008383905067ffffffffffffffff8111156109e3576109e2611db9565b5b604051908082528060200260200182016040528015610a1c57816020015b610a096115a8565b815260200190600190039081610a015790505b50905060005b84849050811015610b3857600080868684818110610a4357610a42611de8565b5b9050602002013581526020019081526020016000206040518060c0016040529081600082015481526020016001820160009054906101000a900473ffffffffffffffffffffffffffffffffffffffff1673ffffffffffffffffffffffffffffffffffffffff1673ffffffffffffffffffffffffffffffffffffffff16815260200160028201548152602001600382015481526020016004820160009054906101000a900460ff161515151581526020016004820160019054906101000a900460ff161515151581525050828281518110610b2057610b1f611de8565b5b60200260200101819052508080600101915050610a22565b508091505092915050565b60016020528060005260406000206000915090505481565b600460009054906101000a900473ffffffffffffffffffffffffffffffffffffffff1681565b600360009054906101000a900473ffffffffffffffffffffffffffffffffffffffff1673ffffffffffffffffffffffffffffffffffffffff163373ffffffffffffffffffffffffffffffffffffffff1614610c11576040517f08c379a0000000000000000000000000000000000000000000000000000000008152600401610c0890611c09565b60405180910390fd5b60005b600680549050811015610cd2578160068281548110610c3657610c35611de8565b5b906000526020600020015403610cc55760066001600680549050610c5a9190611e46565b81548110610c6b57610c6a611de8565b5b906000526020600020015460068281548110610c8a57610c89611de8565b5b90600052602060002001819055506006805480610caa57610ca9611e7a565b5b60019003818190600052602060002001600090559055610cd2565b8080600101915050610c14565b5050565b60003342604051602001610ceb929190611f12565b6040516020818303038152906040528051906020012060001c90506040518060c001604052808281526020013373ffffffffffffffffffffffffffffffffffffffff1681526020018481526020018342610d459190611f3e565b8152602001600015158152602001600015158152506000808381526020019081526020016000206000820151816000015560208201518160010160006101000a81548173ffffffffffffffffffffffffffffffffffffffff021916908373ffffffffffffffffffffffffffffffffffffffff160217905550604082015181600201556060820151816003015560808201518160040160006101000a81548160ff02191690831515021790555060a08201518160040160016101000a81548160ff021916908315150217905550905050600560003373ffffffffffffffffffffffffffffffffffffffff1673ffffffffffffffffffffffffffffffffffffffff16815260200190815260200160002081908060018154018082558091505060019003906000526020600020016000909190919091505560068190806001815401808255809150506001900390600052602060002001600090919091909150553373ffffffffffffffffffffffffffffffffffffffff16817f97e04be2fd6414727fe9d0400464568f4384aa8b06264119565ca8f6cc2a4b7a85604051610eea91906117df565b60405180910390a3505050565b60008082815260200190815260200160002060040160009054906101000a900460ff16610f59576040517f08c379a0000000000000000000000000000000000000000000000000000000008152600401610f5090611fbe565b60405180910390fd5b60008082815260200190815260200160002060040160019054906101000a900460ff1615610fbc576040517f08c379a0000000000000000000000000000000000000000000000000000000008152600401610fb39061202a565b60405180910390fd5b600080828152602001908152602001600020600201543414611013576040517f08c379a000000000000000000000000000000000000000000000000000000000815260040161100a90612096565b60405180910390fd5b600160008083815260200190815260200160002060040160016101000a81548160ff02191690831515021790555061104c336001611240565b807f9a7851747cd7ffb3fe0a32caf3da48b31f27cebe131267051640f8b72fc4718660405160405180910390a250565b60008082815260200190815260200160002060040160009054906101000a900460ff166110de576040517f08c379a00000000000000000000000000000000000000000000000000000000081526004016110d590612102565b60405180910390fd5b60008082815260200190815260200160002060010160009054906101000a900473ffffffffffffffffffffffffffffffffffffffff1673ffffffffffffffffffffffffffffffffffffffff166108fc600080848152602001908152602001600020600201549081150290604051600060405180830381858888f1935050505015801561116e573d6000803e3d6000fd5b5050565b60006020528060005260406000206000915090508060000154908060010160009054906101000a900473ffffffffffffffffffffffffffffffffffffffff16908060020154908060030154908060040160009054906101000a900460ff16908060040160019054906101000a900460ff16905086565b6060600680548060200260200160405190810160405280929190818152602001828054801561123657602002820191906000526020600020905b815481526020019060010190808311611222575b5050505050905090565b600260008373ffffffffffffffffffffffffffffffffffffffff1673ffffffffffffffffffffffffffffffffffffffff16815260200190815260200160002060009054906101000a900460ff16611334576101f4600160008473ffffffffffffffffffffffffffffffffffffffff1673ffffffffffffffffffffffffffffffffffffffff168152602001908152602001600020819055506001600260008473ffffffffffffffffffffffffffffffffffffffff1673ffffffffffffffffffffffffffffffffffffffff16815260200190815260200160002060006101000a81548160ff021916908315150217905550611517565b801561142a5761033e600160008473ffffffffffffffffffffffffffffffffffffffff1673ffffffffffffffffffffffffffffffffffffffff16815260200190815260200160002054116113de576014600160008473ffffffffffffffffffffffffffffffffffffffff1673ffffffffffffffffffffffffffffffffffffffff16815260200190815260200160002060008282546113d29190611f3e565b92505081905550611425565b610352600160008473ffffffffffffffffffffffffffffffffffffffff1673ffffffffffffffffffffffffffffffffffffffff168152602001908152602001600020819055505b611516565b610140600160008473ffffffffffffffffffffffffffffffffffffffff1673ffffffffffffffffffffffffffffffffffffffff16815260200190815260200160002054106114ce576014600160008473ffffffffffffffffffffffffffffffffffffffff1673ffffffffffffffffffffffffffffffffffffffff16815260200190815260200160002060008282546114c29190611e46565b92505081905550611515565b61012c600160008473ffffffffffffffffffffffffffffffffffffffff1673ffffffffffffffffffffffffffffffffffffffff168152602001908152602001600020819055505b5b5b8173ffffffffffffffffffffffffffffffffffffffff167f79c012a0cfae660e09134956bc432c8497ec80e86a3a108d130e8b3fca52b3ad600160008573ffffffffffffffffffffffffffffffffffffffff1673ffffffffffffffffffffffffffffffffffffffff1681526020019081526020016000205460405161159c91906117df565b60405180910390a25050565b6040518060c0016040528060008152602001600073ffffffffffffffffffffffffffffffffffffffff16815260200160008152602001600081526020016000151581526020016000151581525090565b600080fd5b600080fd5b600073ffffffffffffffffffffffffffffffffffffffff82169050919050565b600061162d82611602565b9050919050565b61163d81611622565b811461164857600080fd5b50565b60008135905061165a81611634565b92915050565b600060208284031215611676576116756115f8565b5b60006116848482850161164b565b91505092915050565b600081519050919050565b600082825260208201905092915050565b6000819050602082019050919050565b6000819050919050565b6116cc816116b9565b82525050565b60006116de83836116c3565b60208301905092915050565b6000602082019050919050565b60006117028261168d565b61170c8185611698565b9350611717836116a9565b8060005b8381101561174857815161172f88826116d2565b975061173a836116ea565b92505060018101905061171b565b5085935050505092915050565b6000602082019050818103600083015261176f81846116f7565b905092915050565b611780816116b9565b811461178b57600080fd5b50565b60008135905061179d81611777565b92915050565b6000602082840312156117b9576117b86115f8565b5b60006117c78482850161178e565b91505092915050565b6117d9816116b9565b82525050565b60006020820190506117f460008301846117d0565b92915050565b60008115159050919050565b61180f816117fa565b82525050565b600060208201905061182a6000830184611806565b92915050565b611839816117fa565b811461184457600080fd5b50565b60008135905061185681611830565b92915050565b60008060408385031215611873576118726115f8565b5b60006118818582860161178e565b925050602061189285828601611847565b9150509250929050565b60006040820190506118b160008301856117d0565b6118be6020830184611806565b9392505050565b6118ce81611622565b82525050565b60006020820190506118e960008301846118c5565b92915050565b600080fd5b600080fd5b600080fd5b60008083601f840112611914576119136118ef565b5b8235905067ffffffffffffffff811115611931576119306118f4565b5b60208301915083602082028301111561194d5761194c6118f9565b5b9250929050565b6000806020838503121561196b5761196a6115f8565b5b600083013567ffffffffffffffff811115611989576119886115fd565b5b611995858286016118fe565b92509250509250929050565b600081519050919050565b600082825260208201905092915050565b6000819050602082019050919050565b6119d681611622565b82525050565b6119e5816117fa565b82525050565b60c082016000820151611a0160008501826116c3565b506020820151611a1460208501826119cd565b506040820151611a2760408501826116c3565b506060820151611a3a60608501826116c3565b506080820151611a4d60808501826119dc565b5060a0820151611a6060a08501826119dc565b50505050565b6000611a7283836119eb565b60c08301905092915050565b6000602082019050919050565b6000611a96826119a1565b611aa081856119ac565b9350611aab836119bd565b8060005b83811015611adc578151611ac38882611a66565b9750611ace83611a7e565b925050600181019050611aaf565b5085935050505092915050565b60006020820190508181036000830152611b038184611a8b565b905092915050565b60008060408385031215611b2257611b216115f8565b5b6000611b308582860161178e565b9250506020611b418582860161178e565b9150509250929050565b600060c082019050611b6060008301896117d0565b611b6d60208301886118c5565b611b7a60408301876117d0565b611b8760608301866117d0565b611b946080830185611806565b611ba160a0830184611806565b979650505050505050565b600082825260208201905092915050565b7f4f6e6c792044414f2063616e2063616c6c20746869732066756e6374696f6e00600082015250565b6000611bf3601f83611bac565b9150611bfe82611bbd565b602082019050919050565b60006020820190508181036000830152611c2281611be6565b9050919050565b7f5573657220616c7265616479206861732061206372656469742073636f726500600082015250565b6000611c5f601f83611bac565b9150611c6a82611c29565b602082019050919050565b60006020820190508181036000830152611c8e81611c52565b9050919050565b7f4f6e6c79206f776e65722063616e2063616c6c20746869732066756e6374696f60008201527f6e00000000000000000000000000000000000000000000000000000000000000602082015250565b6000611cf1602183611bac565b9150611cfc82611c95565b604082019050919050565b60006020820190508181036000830152611d2081611ce4565b9050919050565b7f5573657220646f6573206e6f7420686176652061206372656469742073636f7260008201527f6500000000000000000000000000000000000000000000000000000000000000602082015250565b6000611d83602183611bac565b9150611d8e82611d27565b604082019050919050565b60006020820190508181036000830152611db281611d76565b9050919050565b7f4e487b7100000000000000000000000000000000000000000000000000000000600052604160045260246000fd5b7f4e487b7100000000000000000000000000000000000000000000000000000000600052603260045260246000fd5b7f4e487b7100000000000000000000000000000000000000000000000000000000600052601160045260246000fd5b6000611e51826116b9565b9150611e5c836116b9565b9250828203905081811115611e7457611e73611e17565b5b92915050565b7f4e487b7100000000000000000000000000000000000000000000000000000000600052603160045260246000fd5b60008160601b9050919050565b6000611ec182611ea9565b9050919050565b6000611ed382611eb6565b9050919050565b611eeb611ee682611622565b611ec8565b82525050565b6000819050919050565b611f0c611f07826116b9565b611ef1565b82525050565b6000611f1e8285611eda565b601482019150611f2e8284611efb565b6020820191508190509392505050565b6000611f49826116b9565b9150611f54836116b9565b9250828201905080821115611f6c57611f6b611e17565b5b92915050565b7f4c6f616e206e6f7420617070726f766564207965740000000000000000000000600082015250565b6000611fa8601583611bac565b9150611fb382611f72565b602082019050919050565b60006020820190508181036000830152611fd781611f9b565b9050919050565b7f4c6f616e20616c72656164792070616964000000000000000000000000000000600082015250565b6000612014601183611bac565b915061201f82611fde565b602082019050919050565b6000602082019050818103600083015261204381612007565b9050919050565b7f496e636f72726563742072657061796d656e7420616d6f756e74000000000000600082015250565b6000612080601a83611bac565b915061208b8261204a565b602082019050919050565b600060208201905081810360008301526120af81612073565b9050919050565b7f4c6f616e206e6f7420617070726f766564000000000000000000000000000000600082015250565b60006120ec601183611bac565b91506120f7826120b6565b602082019050919050565b6000602082019050818103600083015261211b816120df565b905091905056fea2646970667358221220e79ed40ccff7716413284a00ab72eaad5c92f68e3bd6b6633a9d208c99abffd764736f6c634300081c0033",
  "linkReferences": {},
  "deployedLinkReferences": {}
}