{
  "_format": "hh-sol-artifact-1",
  "contractName": "LoanContract",
  "sourceName": "contracts/LoanContract.sol",
  "abi": [
    {
      "inputs": [
        {
          "internalType": "address",
          "name": "",
          "type": "address"
        }
      ],
      "name": "creditScores",
      "outputs": [
        {
          "internalType": "uint256",
          "name": "",
          "type": "uint256"
        }
      ],
      "stateMutability": "view",
      "type": "function"
    },
    {
      "inputs": [
        {
          "internalType": "uint256",
          "name": "loanId",
          "type": "uint256"
        }
      ],
      "name": "disburseLoan",
      "outputs": [],
      "stateMutability": "payable",
      "type": "function"
    },
    {
      "inputs": [],
      "name": "getCreditScore",
      "outputs": [
        {
          "internalType": "uint256",
          "name": "",
          "type": "uint256"
        }
      ],
      "stateMutability": "view",
      "type": "function"
    },
    {
      "inputs": [
        {
          "internalType": "address",
          "name": "",
          "type": "address"
        }
      ],
      "name": "hasCreditScore",
      "outputs": [
        {
          "internalType": "bool",
          "name": "",
          "type": "bool"
        }
      ],
      "stateMutability": "view",
      "type": "function"
    },
    {
      "inputs": [],
      "name": "initializeCreditScore",
      "outputs": [],
      "stateMutability": "nonpayable",
      "type": "function"
    },
    {
      "inputs": [
        {
          "internalType": "uint256",
          "name": "",
          "type": "uint256"
        }
      ],
      "name": "loans",
      "outputs": [
        {
          "internalType": "uint256",
          "name": "id",
          "type": "uint256"
        },
        {
          "internalType": "address",
          "name": "borrower",
          "type": "address"
        },
        {
          "internalType": "uint256",
          "name": "amount",
          "type": "uint256"
        },
        {
          "internalType": "uint256",
          "name": "repaymentDue",
          "type": "uint256"
        },
        {
          "internalType": "bool",
          "name": "isApproved",
          "type": "bool"
        },
        {
          "internalType": "bool",
          "name": "isPaid",
          "type": "bool"
        }
      ],
      "stateMutability": "view",
      "type": "function"
    },
    {
      "inputs": [
        {
          "internalType": "uint256",
          "name": "loanId",
          "type": "uint256"
        }
      ],
      "name": "repayLoan",
      "outputs": [],
      "stateMutability": "payable",
      "type": "function"
    },
    {
      "inputs": [
        {
          "internalType": "uint256",
          "name": "amount",
          "type": "uint256"
        },
        {
          "internalType": "uint256",
          "name": "duration",
          "type": "uint256"
        }
      ],
      "name": "requestLoan",
      "outputs": [],
      "stateMutability": "nonpayable",
      "type": "function"
    },
    {
      "inputs": [
        {
          "internalType": "uint256",
          "name": "loanId",
          "type": "uint256"
        },
        {
          "internalType": "bool",
          "name": "vote",
          "type": "bool"
        }
      ],
      "name": "voteOnLoan",
      "outputs": [],
      "stateMutability": "nonpayable",
      "type": "function"
    }
  ],
  "bytecode": "0x6080604052348015600f57600080fd5b506110598061001f6000396000f3fe6080604052600436106100865760003560e01c806380bb72731161005957806380bb727314610133578063aa452fa614610170578063ab7b1c8914610199578063b73e4da0146101b5578063e1ec3c68146101d157610086565b806328db15941461008b57806331488c7f146100c857806338fcfb5f146100f15780635da1953814610108575b600080fd5b34801561009757600080fd5b506100b260048036038101906100ad9190610b04565b610213565b6040516100bf9190610b4c565b60405180910390f35b3480156100d457600080fd5b506100ef60048036038101906100ea9190610bc9565b610233565b005b3480156100fd57600080fd5b5061010661026c565b005b34801561011457600080fd5b5061011d610399565b60405161012a9190610c18565b60405180910390f35b34801561013f57600080fd5b5061015a60048036038101906101559190610b04565b61046c565b6040516101679190610c18565b60405180910390f35b34801561017c57600080fd5b5061019760048036038101906101929190610c33565b610484565b005b6101b360048036038101906101ae9190610c73565b6105c7565b005b6101cf60048036038101906101ca9190610c73565b61065a565b005b3480156101dd57600080fd5b506101f860048036038101906101f39190610c73565b610750565b60405161020a96959493929190610caf565b60405180910390f35b60026020528060005260406000206000915054906101000a900460ff1681565b801561026857600160008084815260200190815260200160002060040160006101000a81548160ff0219169083151502179055505b5050565b600260003373ffffffffffffffffffffffffffffffffffffffff1673ffffffffffffffffffffffffffffffffffffffff16815260200190815260200160002060009054906101000a900460ff16156102f9576040517f08c379a00000000000000000000000000000000000000000000000000000000081526004016102f090610d6d565b60405180910390fd5b610190600160003373ffffffffffffffffffffffffffffffffffffffff1673ffffffffffffffffffffffffffffffffffffffff168152602001908152602001600020819055506001600260003373ffffffffffffffffffffffffffffffffffffffff1673ffffffffffffffffffffffffffffffffffffffff16815260200190815260200160002060006101000a81548160ff021916908315150217905550565b6000600260003373ffffffffffffffffffffffffffffffffffffffff1673ffffffffffffffffffffffffffffffffffffffff16815260200190815260200160002060009054906101000a900460ff16610427576040517f08c379a000000000000000000000000000000000000000000000000000000000815260040161041e90610dff565b60405180910390fd5b600160003373ffffffffffffffffffffffffffffffffffffffff1673ffffffffffffffffffffffffffffffffffffffff16815260200190815260200160002054905090565b60016020528060005260406000206000915090505481565b60003342604051602001610499929190610e88565b6040516020818303038152906040528051906020012060001c90506040518060c001604052808281526020013373ffffffffffffffffffffffffffffffffffffffff16815260200184815260200183426104f39190610ee3565b8152602001600015158152602001600015158152506000808381526020019081526020016000206000820151816000015560208201518160010160006101000a81548173ffffffffffffffffffffffffffffffffffffffff021916908373ffffffffffffffffffffffffffffffffffffffff160217905550604082015181600201556060820151816003015560808201518160040160006101000a81548160ff02191690831515021790555060a08201518160040160016101000a81548160ff021916908315150217905550905050505050565b60008082815260200190815260200160002060020154341461061e576040517f08c379a000000000000000000000000000000000000000000000000000000000815260040161061590610f63565b60405180910390fd5b600160008083815260200190815260200160002060040160016101000a81548160ff0219169083151502179055506106573360016107c6565b50565b60008082815260200190815260200160002060040160009054906101000a900460ff166106bc576040517f08c379a00000000000000000000000000000000000000000000000000000000081526004016106b390610fcf565b60405180910390fd5b60008082815260200190815260200160002060010160009054906101000a900473ffffffffffffffffffffffffffffffffffffffff1673ffffffffffffffffffffffffffffffffffffffff166108fc600080848152602001908152602001600020600201549081150290604051600060405180830381858888f1935050505015801561074c573d6000803e3d6000fd5b5050565b60006020528060005260406000206000915090508060000154908060010160009054906101000a900473ffffffffffffffffffffffffffffffffffffffff16908060020154908060030154908060040160009054906101000a900460ff16908060040160019054906101000a900460ff16905086565b600260008373ffffffffffffffffffffffffffffffffffffffff1673ffffffffffffffffffffffffffffffffffffffff16815260200190815260200160002060009054906101000a900460ff166108ba576101f4600160008473ffffffffffffffffffffffffffffffffffffffff1673ffffffffffffffffffffffffffffffffffffffff168152602001908152602001600020819055506001600260008473ffffffffffffffffffffffffffffffffffffffff1673ffffffffffffffffffffffffffffffffffffffff16815260200190815260200160002060006101000a81548160ff021916908315150217905550610a9d565b80156109b05761033e600160008473ffffffffffffffffffffffffffffffffffffffff1673ffffffffffffffffffffffffffffffffffffffff1681526020019081526020016000205411610964576014600160008473ffffffffffffffffffffffffffffffffffffffff1673ffffffffffffffffffffffffffffffffffffffff16815260200190815260200160002060008282546109589190610ee3565b925050819055506109ab565b610352600160008473ffffffffffffffffffffffffffffffffffffffff1673ffffffffffffffffffffffffffffffffffffffff168152602001908152602001600020819055505b610a9c565b610140600160008473ffffffffffffffffffffffffffffffffffffffff1673ffffffffffffffffffffffffffffffffffffffff1681526020019081526020016000205410610a54576014600160008473ffffffffffffffffffffffffffffffffffffffff1673ffffffffffffffffffffffffffffffffffffffff1681526020019081526020016000206000828254610a489190610fef565b92505081905550610a9b565b61012c600160008473ffffffffffffffffffffffffffffffffffffffff1673ffffffffffffffffffffffffffffffffffffffff168152602001908152602001600020819055505b5b5b5050565b600080fd5b600073ffffffffffffffffffffffffffffffffffffffff82169050919050565b6000610ad182610aa6565b9050919050565b610ae181610ac6565b8114610aec57600080fd5b50565b600081359050610afe81610ad8565b92915050565b600060208284031215610b1a57610b19610aa1565b5b6000610b2884828501610aef565b91505092915050565b60008115159050919050565b610b4681610b31565b82525050565b6000602082019050610b616000830184610b3d565b92915050565b6000819050919050565b610b7a81610b67565b8114610b8557600080fd5b50565b600081359050610b9781610b71565b92915050565b610ba681610b31565b8114610bb157600080fd5b50565b600081359050610bc381610b9d565b92915050565b60008060408385031215610be057610bdf610aa1565b5b6000610bee85828601610b88565b9250506020610bff85828601610bb4565b9150509250929050565b610c1281610b67565b82525050565b6000602082019050610c2d6000830184610c09565b92915050565b60008060408385031215610c4a57610c49610aa1565b5b6000610c5885828601610b88565b9250506020610c6985828601610b88565b9150509250929050565b600060208284031215610c8957610c88610aa1565b5b6000610c9784828501610b88565b91505092915050565b610ca981610ac6565b82525050565b600060c082019050610cc46000830189610c09565b610cd16020830188610ca0565b610cde6040830187610c09565b610ceb6060830186610c09565b610cf86080830185610b3d565b610d0560a0830184610b3d565b979650505050505050565b600082825260208201905092915050565b7f5573657220616c7265616479206861732061206372656469742073636f726500600082015250565b6000610d57601f83610d10565b9150610d6282610d21565b602082019050919050565b60006020820190508181036000830152610d8681610d4a565b9050919050565b7f5573657220646f6573206e6f7420686176652061206372656469742073636f7260008201527f6500000000000000000000000000000000000000000000000000000000000000602082015250565b6000610de9602183610d10565b9150610df482610d8d565b604082019050919050565b60006020820190508181036000830152610e1881610ddc565b9050919050565b60008160601b9050919050565b6000610e3782610e1f565b9050919050565b6000610e4982610e2c565b9050919050565b610e61610e5c82610ac6565b610e3e565b82525050565b6000819050919050565b610e82610e7d82610b67565b610e67565b82525050565b6000610e948285610e50565b601482019150610ea48284610e71565b6020820191508190509392505050565b7f4e487b7100000000000000000000000000000000000000000000000000000000600052601160045260246000fd5b6000610eee82610b67565b9150610ef983610b67565b9250828201905080821115610f1157610f10610eb4565b5b92915050565b7f496e636f72726563742072657061796d656e7420616d6f756e74000000000000600082015250565b6000610f4d601a83610d10565b9150610f5882610f17565b602082019050919050565b60006020820190508181036000830152610f7c81610f40565b9050919050565b7f4c6f616e206e6f7420617070726f766564000000000000000000000000000000600082015250565b6000610fb9601183610d10565b9150610fc482610f83565b602082019050919050565b60006020820190508181036000830152610fe881610fac565b9050919050565b6000610ffa82610b67565b915061100583610b67565b925082820390508181111561101d5761101c610eb4565b5b9291505056fea2646970667358221220cd4b414d22f4b71cfa03795d677518e223e826cb10f4ad5dc53ee6af08af0b5664736f6c634300081c0033",
  "linkReferences": {},
  "deployedLinkReferences": {}
}